{
	"data": {
		"bytecode": {
			"linkReferences": {},
			"object": "6080604052348015600e575f5ffd5b50335f5f6101000a81548173ffffffffffffffffffffffffffffffffffffffff021916908373ffffffffffffffffffffffffffffffffffffffff160217905550610e398061005b5f395ff3fe608060405260043610610054575f3560e01c80632a08deda146100585780636e7301fd146100825780638da5cb5b1461008c578063b499b79a146100b6578063e83a1b00146100de578063ec066e3a14610108575b5f5ffd5b348015610063575f5ffd5b5061006c610146565b60405161007991906105af565b60405180910390f35b61008a61014d565b005b348015610097575f5ffd5b506100a061014f565b6040516100ad9190610607565b60405180910390f35b3480156100c1575f5ffd5b506100dc60048036038101906100d791906107d2565b610173565b005b3480156100e9575f5ffd5b506100f2610373565b6040516100ff91906109c4565b60405180910390f35b348015610113575f5ffd5b5061012e600480360381019061012991906109e4565b6104bd565b60405161013d93929190610a66565b60405180910390f35b5f47905090565b565b5f5f9054906101000a900473ffffffffffffffffffffffffffffffffffffffff1681565b5f5f9054906101000a900473ffffffffffffffffffffffffffffffffffffffff1673ffffffffffffffffffffffffffffffffffffffff163373ffffffffffffffffffffffffffffffffffffffff1614610201576040517f08c379a00000000000000000000000000000000000000000000000000000000081526004016101f890610aec565b60405180910390fd5b5f5f90505f5f90505b6001805490508110156102a1578473ffffffffffffffffffffffffffffffffffffffff166001828154811061024257610241610b0a565b5b905f5260205f2090600302015f015f9054906101000a900473ffffffffffffffffffffffffffffffffffffffff1673ffffffffffffffffffffffffffffffffffffffff160361029457600191506102a1565b808060010191505061020a565b505f15158115150361036d57600160405180606001604052808673ffffffffffffffffffffffffffffffffffffffff16815260200185815260200184815250908060018154018082558091505060019003905f5260205f2090600302015f909190919091505f820151815f015f6101000a81548173ffffffffffffffffffffffffffffffffffffffff021916908373ffffffffffffffffffffffffffffffffffffffff160217905550602082015181600101908161035f9190610d34565b506040820151816002015550505b50505050565b60606001805480602002602001604051908101604052809291908181526020015f905b828210156104b4578382905f5260205f2090600302016040518060600160405290815f82015f9054906101000a900473ffffffffffffffffffffffffffffffffffffffff1673ffffffffffffffffffffffffffffffffffffffff1673ffffffffffffffffffffffffffffffffffffffff16815260200160018201805461041b90610b64565b80601f016020809104026020016040519081016040528092919081815260200182805461044790610b64565b80156104925780601f1061046957610100808354040283529160200191610492565b820191905f5260205f20905b81548152906001019060200180831161047557829003601f168201915b5050505050815260200160028201548152505081526020019060010190610396565b50505050905090565b600181815481106104cc575f80fd5b905f5260205f2090600302015f91509050805f015f9054906101000a900473ffffffffffffffffffffffffffffffffffffffff169080600101805461051090610b64565b80601f016020809104026020016040519081016040528092919081815260200182805461053c90610b64565b80156105875780601f1061055e57610100808354040283529160200191610587565b820191905f5260205f20905b81548152906001019060200180831161056a57829003601f168201915b5050505050908060020154905083565b5f819050919050565b6105a981610597565b82525050565b5f6020820190506105c25f8301846105a0565b92915050565b5f73ffffffffffffffffffffffffffffffffffffffff82169050919050565b5f6105f1826105c8565b9050919050565b610601816105e7565b82525050565b5f60208201905061061a5f8301846105f8565b92915050565b5f604051905090565b5f5ffd5b5f5ffd5b5f61063b826105c8565b9050919050565b61064b81610631565b8114610655575f5ffd5b50565b5f8135905061066681610642565b92915050565b5f5ffd5b5f5ffd5b5f601f19601f8301169050919050565b7f4e487b71000000000000000000000000000000000000000000000000000000005f52604160045260245ffd5b6106ba82610674565b810181811067ffffffffffffffff821117156106d9576106d8610684565b5b80604052505050565b5f6106eb610620565b90506106f782826106b1565b919050565b5f67ffffffffffffffff82111561071657610715610684565b5b61071f82610674565b9050602081019050919050565b828183375f83830152505050565b5f61074c610747846106fc565b6106e2565b90508281526020810184848401111561076857610767610670565b5b61077384828561072c565b509392505050565b5f82601f83011261078f5761078e61066c565b5b813561079f84826020860161073a565b91505092915050565b6107b181610597565b81146107bb575f5ffd5b50565b5f813590506107cc816107a8565b92915050565b5f5f5f606084860312156107e9576107e8610629565b5b5f6107f686828701610658565b935050602084013567ffffffffffffffff8111156108175761081661062d565b5b6108238682870161077b565b9250506040610834868287016107be565b9150509250925092565b5f81519050919050565b5f82825260208201905092915050565b5f819050602082019050919050565b61087081610631565b82525050565b5f81519050919050565b5f82825260208201905092915050565b8281835e5f83830152505050565b5f6108a882610876565b6108b28185610880565b93506108c2818560208601610890565b6108cb81610674565b840191505092915050565b6108df81610597565b82525050565b5f606083015f8301516108fa5f860182610867565b5060208301518482036020860152610912828261089e565b915050604083015161092760408601826108d6565b508091505092915050565b5f61093d83836108e5565b905092915050565b5f602082019050919050565b5f61095b8261083e565b6109658185610848565b93508360208202850161097785610858565b805f5b858110156109b257848403895281516109938582610932565b945061099e83610945565b925060208a0199505060018101905061097a565b50829750879550505050505092915050565b5f6020820190508181035f8301526109dc8184610951565b905092915050565b5f602082840312156109f9576109f8610629565b5b5f610a06848285016107be565b91505092915050565b610a1881610631565b82525050565b5f82825260208201905092915050565b5f610a3882610876565b610a428185610a1e565b9350610a52818560208601610890565b610a5b81610674565b840191505092915050565b5f606082019050610a795f830186610a0f565b8181036020830152610a8b8185610a2e565b9050610a9a60408301846105a0565b949350505050565b7f4f6e6c79206f776e65722063616e2063616c6c000000000000000000000000005f82015250565b5f610ad6601383610a1e565b9150610ae182610aa2565b602082019050919050565b5f6020820190508181035f830152610b0381610aca565b9050919050565b7f4e487b71000000000000000000000000000000000000000000000000000000005f52603260045260245ffd5b7f4e487b71000000000000000000000000000000000000000000000000000000005f52602260045260245ffd5b5f6002820490506001821680610b7b57607f821691505b602082108103610b8e57610b8d610b37565b5b50919050565b5f819050815f5260205f209050919050565b5f6020601f8301049050919050565b5f82821b905092915050565b5f60088302610bf07fffffffffffffffffffffffffffffffffffffffffffffffffffffffffffffffff82610bb5565b610bfa8683610bb5565b95508019841693508086168417925050509392505050565b5f819050919050565b5f610c35610c30610c2b84610597565b610c12565b610597565b9050919050565b5f819050919050565b610c4e83610c1b565b610c62610c5a82610c3c565b848454610bc1565b825550505050565b5f5f905090565b610c79610c6a565b610c84818484610c45565b505050565b5b81811015610ca757610c9c5f82610c71565b600181019050610c8a565b5050565b601f821115610cec57610cbd81610b94565b610cc684610ba6565b81016020851015610cd5578190505b610ce9610ce185610ba6565b830182610c89565b50505b505050565b5f82821c905092915050565b5f610d0c5f1984600802610cf1565b1980831691505092915050565b5f610d248383610cfd565b9150826002028217905092915050565b610d3d82610876565b67ffffffffffffffff811115610d5657610d55610684565b5b610d608254610b64565b610d6b828285610cab565b5f60209050601f831160018114610d9c575f8415610d8a578287015190505b610d948582610d19565b865550610dfb565b601f198416610daa86610b94565b5f5b82811015610dd157848901518255600182019150602085019450602081019050610dac565b86831015610dee5784890151610dea601f891682610cfd565b8355505b6001600288020188555050505b50505050505056fea264697066735822122025c5edb161732863ec5019ca1e72c824a7cadc56188fdc37e4dc7d4a8c6793b864736f6c634300081f0033",
			"opcodes": "PUSH1 0x80 PUSH1 0x40 MSTORE CALLVALUE DUP1 ISZERO PUSH1 0xE JUMPI PUSH0 PUSH0 REVERT JUMPDEST POP CALLER PUSH0 PUSH0 PUSH2 0x100 EXP DUP2 SLOAD DUP2 PUSH20 0xFFFFFFFFFFFFFFFFFFFFFFFFFFFFFFFFFFFFFFFF MUL NOT AND SWAP1 DUP4 PUSH20 0xFFFFFFFFFFFFFFFFFFFFFFFFFFFFFFFFFFFFFFFF AND MUL OR SWAP1 SSTORE POP PUSH2 0xE39 DUP1 PUSH2 0x5B PUSH0 CODECOPY PUSH0 RETURN INVALID PUSH1 0x80 PUSH1 0x40 MSTORE PUSH1 0x4 CALLDATASIZE LT PUSH2 0x54 JUMPI PUSH0 CALLDATALOAD PUSH1 0xE0 SHR DUP1 PUSH4 0x2A08DEDA EQ PUSH2 0x58 JUMPI DUP1 PUSH4 0x6E7301FD EQ PUSH2 0x82 JUMPI DUP1 PUSH4 0x8DA5CB5B EQ PUSH2 0x8C JUMPI DUP1 PUSH4 0xB499B79A EQ PUSH2 0xB6 JUMPI DUP1 PUSH4 0xE83A1B00 EQ PUSH2 0xDE JUMPI DUP1 PUSH4 0xEC066E3A EQ PUSH2 0x108 JUMPI JUMPDEST PUSH0 PUSH0 REVERT JUMPDEST CALLVALUE DUP1 ISZERO PUSH2 0x63 JUMPI PUSH0 PUSH0 REVERT JUMPDEST POP PUSH2 0x6C PUSH2 0x146 JUMP JUMPDEST PUSH1 0x40 MLOAD PUSH2 0x79 SWAP2 SWAP1 PUSH2 0x5AF JUMP JUMPDEST PUSH1 0x40 MLOAD DUP1 SWAP2 SUB SWAP1 RETURN JUMPDEST PUSH2 0x8A PUSH2 0x14D JUMP JUMPDEST STOP JUMPDEST CALLVALUE DUP1 ISZERO PUSH2 0x97 JUMPI PUSH0 PUSH0 REVERT JUMPDEST POP PUSH2 0xA0 PUSH2 0x14F JUMP JUMPDEST PUSH1 0x40 MLOAD PUSH2 0xAD SWAP2 SWAP1 PUSH2 0x607 JUMP JUMPDEST PUSH1 0x40 MLOAD DUP1 SWAP2 SUB SWAP1 RETURN JUMPDEST CALLVALUE DUP1 ISZERO PUSH2 0xC1 JUMPI PUSH0 PUSH0 REVERT JUMPDEST POP PUSH2 0xDC PUSH1 0x4 DUP1 CALLDATASIZE SUB DUP2 ADD SWAP1 PUSH2 0xD7 SWAP2 SWAP1 PUSH2 0x7D2 JUMP JUMPDEST PUSH2 0x173 JUMP JUMPDEST STOP JUMPDEST CALLVALUE DUP1 ISZERO PUSH2 0xE9 JUMPI PUSH0 PUSH0 REVERT JUMPDEST POP PUSH2 0xF2 PUSH2 0x373 JUMP JUMPDEST PUSH1 0x40 MLOAD PUSH2 0xFF SWAP2 SWAP1 PUSH2 0x9C4 JUMP JUMPDEST PUSH1 0x40 MLOAD DUP1 SWAP2 SUB SWAP1 RETURN JUMPDEST CALLVALUE DUP1 ISZERO PUSH2 0x113 JUMPI PUSH0 PUSH0 REVERT JUMPDEST POP PUSH2 0x12E PUSH1 0x4 DUP1 CALLDATASIZE SUB DUP2 ADD SWAP1 PUSH2 0x129 SWAP2 SWAP1 PUSH2 0x9E4 JUMP JUMPDEST PUSH2 0x4BD JUMP JUMPDEST PUSH1 0x40 MLOAD PUSH2 0x13D SWAP4 SWAP3 SWAP2 SWAP1 PUSH2 0xA66 JUMP JUMPDEST PUSH1 0x40 MLOAD DUP1 SWAP2 SUB SWAP1 RETURN JUMPDEST PUSH0 SELFBALANCE SWAP1 POP SWAP1 JUMP JUMPDEST JUMP JUMPDEST PUSH0 PUSH0 SWAP1 SLOAD SWAP1 PUSH2 0x100 EXP SWAP1 DIV PUSH20 0xFFFFFFFFFFFFFFFFFFFFFFFFFFFFFFFFFFFFFFFF AND DUP2 JUMP JUMPDEST PUSH0 PUSH0 SWAP1 SLOAD SWAP1 PUSH2 0x100 EXP SWAP1 DIV PUSH20 0xFFFFFFFFFFFFFFFFFFFFFFFFFFFFFFFFFFFFFFFF AND PUSH20 0xFFFFFFFFFFFFFFFFFFFFFFFFFFFFFFFFFFFFFFFF AND CALLER PUSH20 0xFFFFFFFFFFFFFFFFFFFFFFFFFFFFFFFFFFFFFFFF AND EQ PUSH2 0x201 JUMPI PUSH1 0x40 MLOAD PUSH32 0x8C379A000000000000000000000000000000000000000000000000000000000 DUP2 MSTORE PUSH1 0x4 ADD PUSH2 0x1F8 SWAP1 PUSH2 0xAEC JUMP JUMPDEST PUSH1 0x40 MLOAD DUP1 SWAP2 SUB SWAP1 REVERT JUMPDEST PUSH0 PUSH0 SWAP1 POP PUSH0 PUSH0 SWAP1 POP JUMPDEST PUSH1 0x1 DUP1 SLOAD SWAP1 POP DUP2 LT ISZERO PUSH2 0x2A1 JUMPI DUP5 PUSH20 0xFFFFFFFFFFFFFFFFFFFFFFFFFFFFFFFFFFFFFFFF AND PUSH1 0x1 DUP3 DUP2 SLOAD DUP2 LT PUSH2 0x242 JUMPI PUSH2 0x241 PUSH2 0xB0A JUMP JUMPDEST JUMPDEST SWAP1 PUSH0 MSTORE PUSH1 0x20 PUSH0 KECCAK256 SWAP1 PUSH1 0x3 MUL ADD PUSH0 ADD PUSH0 SWAP1 SLOAD SWAP1 PUSH2 0x100 EXP SWAP1 DIV PUSH20 0xFFFFFFFFFFFFFFFFFFFFFFFFFFFFFFFFFFFFFFFF AND PUSH20 0xFFFFFFFFFFFFFFFFFFFFFFFFFFFFFFFFFFFFFFFF AND SUB PUSH2 0x294 JUMPI PUSH1 0x1 SWAP2 POP PUSH2 0x2A1 JUMP JUMPDEST DUP1 DUP1 PUSH1 0x1 ADD SWAP2 POP POP PUSH2 0x20A JUMP JUMPDEST POP PUSH0 ISZERO ISZERO DUP2 ISZERO ISZERO SUB PUSH2 0x36D JUMPI PUSH1 0x1 PUSH1 0x40 MLOAD DUP1 PUSH1 0x60 ADD PUSH1 0x40 MSTORE DUP1 DUP7 PUSH20 0xFFFFFFFFFFFFFFFFFFFFFFFFFFFFFFFFFFFFFFFF AND DUP2 MSTORE PUSH1 0x20 ADD DUP6 DUP2 MSTORE PUSH1 0x20 ADD DUP5 DUP2 MSTORE POP SWAP1 DUP1 PUSH1 0x1 DUP2 SLOAD ADD DUP1 DUP3 SSTORE DUP1 SWAP2 POP POP PUSH1 0x1 SWAP1 SUB SWAP1 PUSH0 MSTORE PUSH1 0x20 PUSH0 KECCAK256 SWAP1 PUSH1 0x3 MUL ADD PUSH0 SWAP1 SWAP2 SWAP1 SWAP2 SWAP1 SWAP2 POP PUSH0 DUP3 ADD MLOAD DUP2 PUSH0 ADD PUSH0 PUSH2 0x100 EXP DUP2 SLOAD DUP2 PUSH20 0xFFFFFFFFFFFFFFFFFFFFFFFFFFFFFFFFFFFFFFFF MUL NOT AND SWAP1 DUP4 PUSH20 0xFFFFFFFFFFFFFFFFFFFFFFFFFFFFFFFFFFFFFFFF AND MUL OR SWAP1 SSTORE POP PUSH1 0x20 DUP3 ADD MLOAD DUP2 PUSH1 0x1 ADD SWAP1 DUP2 PUSH2 0x35F SWAP2 SWAP1 PUSH2 0xD34 JUMP JUMPDEST POP PUSH1 0x40 DUP3 ADD MLOAD DUP2 PUSH1 0x2 ADD SSTORE POP POP JUMPDEST POP POP POP POP JUMP JUMPDEST PUSH1 0x60 PUSH1 0x1 DUP1 SLOAD DUP1 PUSH1 0x20 MUL PUSH1 0x20 ADD PUSH1 0x40 MLOAD SWAP1 DUP2 ADD PUSH1 0x40 MSTORE DUP1 SWAP3 SWAP2 SWAP1 DUP2 DUP2 MSTORE PUSH1 0x20 ADD PUSH0 SWAP1 JUMPDEST DUP3 DUP3 LT ISZERO PUSH2 0x4B4 JUMPI DUP4 DUP3 SWAP1 PUSH0 MSTORE PUSH1 0x20 PUSH0 KECCAK256 SWAP1 PUSH1 0x3 MUL ADD PUSH1 0x40 MLOAD DUP1 PUSH1 0x60 ADD PUSH1 0x40 MSTORE SWAP1 DUP2 PUSH0 DUP3 ADD PUSH0 SWAP1 SLOAD SWAP1 PUSH2 0x100 EXP SWAP1 DIV PUSH20 0xFFFFFFFFFFFFFFFFFFFFFFFFFFFFFFFFFFFFFFFF AND PUSH20 0xFFFFFFFFFFFFFFFFFFFFFFFFFFFFFFFFFFFFFFFF AND PUSH20 0xFFFFFFFFFFFFFFFFFFFFFFFFFFFFFFFFFFFFFFFF AND DUP2 MSTORE PUSH1 0x20 ADD PUSH1 0x1 DUP3 ADD DUP1 SLOAD PUSH2 0x41B SWAP1 PUSH2 0xB64 JUMP JUMPDEST DUP1 PUSH1 0x1F ADD PUSH1 0x20 DUP1 SWAP2 DIV MUL PUSH1 0x20 ADD PUSH1 0x40 MLOAD SWAP1 DUP2 ADD PUSH1 0x40 MSTORE DUP1 SWAP3 SWAP2 SWAP1 DUP2 DUP2 MSTORE PUSH1 0x20 ADD DUP3 DUP1 SLOAD PUSH2 0x447 SWAP1 PUSH2 0xB64 JUMP JUMPDEST DUP1 ISZERO PUSH2 0x492 JUMPI DUP1 PUSH1 0x1F LT PUSH2 0x469 JUMPI PUSH2 0x100 DUP1 DUP4 SLOAD DIV MUL DUP4 MSTORE SWAP2 PUSH1 0x20 ADD SWAP2 PUSH2 0x492 JUMP JUMPDEST DUP3 ADD SWAP2 SWAP1 PUSH0 MSTORE PUSH1 0x20 PUSH0 KECCAK256 SWAP1 JUMPDEST DUP2 SLOAD DUP2 MSTORE SWAP1 PUSH1 0x1 ADD SWAP1 PUSH1 0x20 ADD DUP1 DUP4 GT PUSH2 0x475 JUMPI DUP3 SWAP1 SUB PUSH1 0x1F AND DUP3 ADD SWAP2 JUMPDEST POP POP POP POP POP DUP2 MSTORE PUSH1 0x20 ADD PUSH1 0x2 DUP3 ADD SLOAD DUP2 MSTORE POP POP DUP2 MSTORE PUSH1 0x20 ADD SWAP1 PUSH1 0x1 ADD SWAP1 PUSH2 0x396 JUMP JUMPDEST POP POP POP POP SWAP1 POP SWAP1 JUMP JUMPDEST PUSH1 0x1 DUP2 DUP2 SLOAD DUP2 LT PUSH2 0x4CC JUMPI PUSH0 DUP1 REVERT JUMPDEST SWAP1 PUSH0 MSTORE PUSH1 0x20 PUSH0 KECCAK256 SWAP1 PUSH1 0x3 MUL ADD PUSH0 SWAP2 POP SWAP1 POP DUP1 PUSH0 ADD PUSH0 SWAP1 SLOAD SWAP1 PUSH2 0x100 EXP SWAP1 DIV PUSH20 0xFFFFFFFFFFFFFFFFFFFFFFFFFFFFFFFFFFFFFFFF AND SWAP1 DUP1 PUSH1 0x1 ADD DUP1 SLOAD PUSH2 0x510 SWAP1 PUSH2 0xB64 JUMP JUMPDEST DUP1 PUSH1 0x1F ADD PUSH1 0x20 DUP1 SWAP2 DIV MUL PUSH1 0x20 ADD PUSH1 0x40 MLOAD SWAP1 DUP2 ADD PUSH1 0x40 MSTORE DUP1 SWAP3 SWAP2 SWAP1 DUP2 DUP2 MSTORE PUSH1 0x20 ADD DUP3 DUP1 SLOAD PUSH2 0x53C SWAP1 PUSH2 0xB64 JUMP JUMPDEST DUP1 ISZERO PUSH2 0x587 JUMPI DUP1 PUSH1 0x1F LT PUSH2 0x55E JUMPI PUSH2 0x100 DUP1 DUP4 SLOAD DIV MUL DUP4 MSTORE SWAP2 PUSH1 0x20 ADD SWAP2 PUSH2 0x587 JUMP JUMPDEST DUP3 ADD SWAP2 SWAP1 PUSH0 MSTORE PUSH1 0x20 PUSH0 KECCAK256 SWAP1 JUMPDEST DUP2 SLOAD DUP2 MSTORE SWAP1 PUSH1 0x1 ADD SWAP1 PUSH1 0x20 ADD DUP1 DUP4 GT PUSH2 0x56A JUMPI DUP3 SWAP1 SUB PUSH1 0x1F AND DUP3 ADD SWAP2 JUMPDEST POP POP POP POP POP SWAP1 DUP1 PUSH1 0x2 ADD SLOAD SWAP1 POP DUP4 JUMP JUMPDEST PUSH0 DUP2 SWAP1 POP SWAP2 SWAP1 POP JUMP JUMPDEST PUSH2 0x5A9 DUP2 PUSH2 0x597 JUMP JUMPDEST DUP3 MSTORE POP POP JUMP JUMPDEST PUSH0 PUSH1 0x20 DUP3 ADD SWAP1 POP PUSH2 0x5C2 PUSH0 DUP4 ADD DUP5 PUSH2 0x5A0 JUMP JUMPDEST SWAP3 SWAP2 POP POP JUMP JUMPDEST PUSH0 PUSH20 0xFFFFFFFFFFFFFFFFFFFFFFFFFFFFFFFFFFFFFFFF DUP3 AND SWAP1 POP SWAP2 SWAP1 POP JUMP JUMPDEST PUSH0 PUSH2 0x5F1 DUP3 PUSH2 0x5C8 JUMP JUMPDEST SWAP1 POP SWAP2 SWAP1 POP JUMP JUMPDEST PUSH2 0x601 DUP2 PUSH2 0x5E7 JUMP JUMPDEST DUP3 MSTORE POP POP JUMP JUMPDEST PUSH0 PUSH1 0x20 DUP3 ADD SWAP1 POP PUSH2 0x61A PUSH0 DUP4 ADD DUP5 PUSH2 0x5F8 JUMP JUMPDEST SWAP3 SWAP2 POP POP JUMP JUMPDEST PUSH0 PUSH1 0x40 MLOAD SWAP1 POP SWAP1 JUMP JUMPDEST PUSH0 PUSH0 REVERT JUMPDEST PUSH0 PUSH0 REVERT JUMPDEST PUSH0 PUSH2 0x63B DUP3 PUSH2 0x5C8 JUMP JUMPDEST SWAP1 POP SWAP2 SWAP1 POP JUMP JUMPDEST PUSH2 0x64B DUP2 PUSH2 0x631 JUMP JUMPDEST DUP2 EQ PUSH2 0x655 JUMPI PUSH0 PUSH0 REVERT JUMPDEST POP JUMP JUMPDEST PUSH0 DUP2 CALLDATALOAD SWAP1 POP PUSH2 0x666 DUP2 PUSH2 0x642 JUMP JUMPDEST SWAP3 SWAP2 POP POP JUMP JUMPDEST PUSH0 PUSH0 REVERT JUMPDEST PUSH0 PUSH0 REVERT JUMPDEST PUSH0 PUSH1 0x1F NOT PUSH1 0x1F DUP4 ADD AND SWAP1 POP SWAP2 SWAP1 POP JUMP JUMPDEST PUSH32 0x4E487B7100000000000000000000000000000000000000000000000000000000 PUSH0 MSTORE PUSH1 0x41 PUSH1 0x4 MSTORE PUSH1 0x24 PUSH0 REVERT JUMPDEST PUSH2 0x6BA DUP3 PUSH2 0x674 JUMP JUMPDEST DUP2 ADD DUP2 DUP2 LT PUSH8 0xFFFFFFFFFFFFFFFF DUP3 GT OR ISZERO PUSH2 0x6D9 JUMPI PUSH2 0x6D8 PUSH2 0x684 JUMP JUMPDEST JUMPDEST DUP1 PUSH1 0x40 MSTORE POP POP POP JUMP JUMPDEST PUSH0 PUSH2 0x6EB PUSH2 0x620 JUMP JUMPDEST SWAP1 POP PUSH2 0x6F7 DUP3 DUP3 PUSH2 0x6B1 JUMP JUMPDEST SWAP2 SWAP1 POP JUMP JUMPDEST PUSH0 PUSH8 0xFFFFFFFFFFFFFFFF DUP3 GT ISZERO PUSH2 0x716 JUMPI PUSH2 0x715 PUSH2 0x684 JUMP JUMPDEST JUMPDEST PUSH2 0x71F DUP3 PUSH2 0x674 JUMP JUMPDEST SWAP1 POP PUSH1 0x20 DUP2 ADD SWAP1 POP SWAP2 SWAP1 POP JUMP JUMPDEST DUP3 DUP2 DUP4 CALLDATACOPY PUSH0 DUP4 DUP4 ADD MSTORE POP POP POP JUMP JUMPDEST PUSH0 PUSH2 0x74C PUSH2 0x747 DUP5 PUSH2 0x6FC JUMP JUMPDEST PUSH2 0x6E2 JUMP JUMPDEST SWAP1 POP DUP3 DUP2 MSTORE PUSH1 0x20 DUP2 ADD DUP5 DUP5 DUP5 ADD GT ISZERO PUSH2 0x768 JUMPI PUSH2 0x767 PUSH2 0x670 JUMP JUMPDEST JUMPDEST PUSH2 0x773 DUP5 DUP3 DUP6 PUSH2 0x72C JUMP JUMPDEST POP SWAP4 SWAP3 POP POP POP JUMP JUMPDEST PUSH0 DUP3 PUSH1 0x1F DUP4 ADD SLT PUSH2 0x78F JUMPI PUSH2 0x78E PUSH2 0x66C JUMP JUMPDEST JUMPDEST DUP2 CALLDATALOAD PUSH2 0x79F DUP5 DUP3 PUSH1 0x20 DUP7 ADD PUSH2 0x73A JUMP JUMPDEST SWAP2 POP POP SWAP3 SWAP2 POP POP JUMP JUMPDEST PUSH2 0x7B1 DUP2 PUSH2 0x597 JUMP JUMPDEST DUP2 EQ PUSH2 0x7BB JUMPI PUSH0 PUSH0 REVERT JUMPDEST POP JUMP JUMPDEST PUSH0 DUP2 CALLDATALOAD SWAP1 POP PUSH2 0x7CC DUP2 PUSH2 0x7A8 JUMP JUMPDEST SWAP3 SWAP2 POP POP JUMP JUMPDEST PUSH0 PUSH0 PUSH0 PUSH1 0x60 DUP5 DUP7 SUB SLT ISZERO PUSH2 0x7E9 JUMPI PUSH2 0x7E8 PUSH2 0x629 JUMP JUMPDEST JUMPDEST PUSH0 PUSH2 0x7F6 DUP7 DUP3 DUP8 ADD PUSH2 0x658 JUMP JUMPDEST SWAP4 POP POP PUSH1 0x20 DUP5 ADD CALLDATALOAD PUSH8 0xFFFFFFFFFFFFFFFF DUP2 GT ISZERO PUSH2 0x817 JUMPI PUSH2 0x816 PUSH2 0x62D JUMP JUMPDEST JUMPDEST PUSH2 0x823 DUP7 DUP3 DUP8 ADD PUSH2 0x77B JUMP JUMPDEST SWAP3 POP POP PUSH1 0x40 PUSH2 0x834 DUP7 DUP3 DUP8 ADD PUSH2 0x7BE JUMP JUMPDEST SWAP2 POP POP SWAP3 POP SWAP3 POP SWAP3 JUMP JUMPDEST PUSH0 DUP2 MLOAD SWAP1 POP SWAP2 SWAP1 POP JUMP JUMPDEST PUSH0 DUP3 DUP3 MSTORE PUSH1 0x20 DUP3 ADD SWAP1 POP SWAP3 SWAP2 POP POP JUMP JUMPDEST PUSH0 DUP2 SWAP1 POP PUSH1 0x20 DUP3 ADD SWAP1 POP SWAP2 SWAP1 POP JUMP JUMPDEST PUSH2 0x870 DUP2 PUSH2 0x631 JUMP JUMPDEST DUP3 MSTORE POP POP JUMP JUMPDEST PUSH0 DUP2 MLOAD SWAP1 POP SWAP2 SWAP1 POP JUMP JUMPDEST PUSH0 DUP3 DUP3 MSTORE PUSH1 0x20 DUP3 ADD SWAP1 POP SWAP3 SWAP2 POP POP JUMP JUMPDEST DUP3 DUP2 DUP4 MCOPY PUSH0 DUP4 DUP4 ADD MSTORE POP POP POP JUMP JUMPDEST PUSH0 PUSH2 0x8A8 DUP3 PUSH2 0x876 JUMP JUMPDEST PUSH2 0x8B2 DUP2 DUP6 PUSH2 0x880 JUMP JUMPDEST SWAP4 POP PUSH2 0x8C2 DUP2 DUP6 PUSH1 0x20 DUP7 ADD PUSH2 0x890 JUMP JUMPDEST PUSH2 0x8CB DUP2 PUSH2 0x674 JUMP JUMPDEST DUP5 ADD SWAP2 POP POP SWAP3 SWAP2 POP POP JUMP JUMPDEST PUSH2 0x8DF DUP2 PUSH2 0x597 JUMP JUMPDEST DUP3 MSTORE POP POP JUMP JUMPDEST PUSH0 PUSH1 0x60 DUP4 ADD PUSH0 DUP4 ADD MLOAD PUSH2 0x8FA PUSH0 DUP7 ADD DUP3 PUSH2 0x867 JUMP JUMPDEST POP PUSH1 0x20 DUP4 ADD MLOAD DUP5 DUP3 SUB PUSH1 0x20 DUP7 ADD MSTORE PUSH2 0x912 DUP3 DUP3 PUSH2 0x89E JUMP JUMPDEST SWAP2 POP POP PUSH1 0x40 DUP4 ADD MLOAD PUSH2 0x927 PUSH1 0x40 DUP7 ADD DUP3 PUSH2 0x8D6 JUMP JUMPDEST POP DUP1 SWAP2 POP POP SWAP3 SWAP2 POP POP JUMP JUMPDEST PUSH0 PUSH2 0x93D DUP4 DUP4 PUSH2 0x8E5 JUMP JUMPDEST SWAP1 POP SWAP3 SWAP2 POP POP JUMP JUMPDEST PUSH0 PUSH1 0x20 DUP3 ADD SWAP1 POP SWAP2 SWAP1 POP JUMP JUMPDEST PUSH0 PUSH2 0x95B DUP3 PUSH2 0x83E JUMP JUMPDEST PUSH2 0x965 DUP2 DUP6 PUSH2 0x848 JUMP JUMPDEST SWAP4 POP DUP4 PUSH1 0x20 DUP3 MUL DUP6 ADD PUSH2 0x977 DUP6 PUSH2 0x858 JUMP JUMPDEST DUP1 PUSH0 JUMPDEST DUP6 DUP2 LT ISZERO PUSH2 0x9B2 JUMPI DUP5 DUP5 SUB DUP10 MSTORE DUP2 MLOAD PUSH2 0x993 DUP6 DUP3 PUSH2 0x932 JUMP JUMPDEST SWAP5 POP PUSH2 0x99E DUP4 PUSH2 0x945 JUMP JUMPDEST SWAP3 POP PUSH1 0x20 DUP11 ADD SWAP10 POP POP PUSH1 0x1 DUP2 ADD SWAP1 POP PUSH2 0x97A JUMP JUMPDEST POP DUP3 SWAP8 POP DUP8 SWAP6 POP POP POP POP POP POP SWAP3 SWAP2 POP POP JUMP JUMPDEST PUSH0 PUSH1 0x20 DUP3 ADD SWAP1 POP DUP2 DUP2 SUB PUSH0 DUP4 ADD MSTORE PUSH2 0x9DC DUP2 DUP5 PUSH2 0x951 JUMP JUMPDEST SWAP1 POP SWAP3 SWAP2 POP POP JUMP JUMPDEST PUSH0 PUSH1 0x20 DUP3 DUP5 SUB SLT ISZERO PUSH2 0x9F9 JUMPI PUSH2 0x9F8 PUSH2 0x629 JUMP JUMPDEST JUMPDEST PUSH0 PUSH2 0xA06 DUP5 DUP3 DUP6 ADD PUSH2 0x7BE JUMP JUMPDEST SWAP2 POP POP SWAP3 SWAP2 POP POP JUMP JUMPDEST PUSH2 0xA18 DUP2 PUSH2 0x631 JUMP JUMPDEST DUP3 MSTORE POP POP JUMP JUMPDEST PUSH0 DUP3 DUP3 MSTORE PUSH1 0x20 DUP3 ADD SWAP1 POP SWAP3 SWAP2 POP POP JUMP JUMPDEST PUSH0 PUSH2 0xA38 DUP3 PUSH2 0x876 JUMP JUMPDEST PUSH2 0xA42 DUP2 DUP6 PUSH2 0xA1E JUMP JUMPDEST SWAP4 POP PUSH2 0xA52 DUP2 DUP6 PUSH1 0x20 DUP7 ADD PUSH2 0x890 JUMP JUMPDEST PUSH2 0xA5B DUP2 PUSH2 0x674 JUMP JUMPDEST DUP5 ADD SWAP2 POP POP SWAP3 SWAP2 POP POP JUMP JUMPDEST PUSH0 PUSH1 0x60 DUP3 ADD SWAP1 POP PUSH2 0xA79 PUSH0 DUP4 ADD DUP7 PUSH2 0xA0F JUMP JUMPDEST DUP2 DUP2 SUB PUSH1 0x20 DUP4 ADD MSTORE PUSH2 0xA8B DUP2 DUP6 PUSH2 0xA2E JUMP JUMPDEST SWAP1 POP PUSH2 0xA9A PUSH1 0x40 DUP4 ADD DUP5 PUSH2 0x5A0 JUMP JUMPDEST SWAP5 SWAP4 POP POP POP POP JUMP JUMPDEST PUSH32 0x4F6E6C79206F776E65722063616E2063616C6C00000000000000000000000000 PUSH0 DUP3 ADD MSTORE POP JUMP JUMPDEST PUSH0 PUSH2 0xAD6 PUSH1 0x13 DUP4 PUSH2 0xA1E JUMP JUMPDEST SWAP2 POP PUSH2 0xAE1 DUP3 PUSH2 0xAA2 JUMP JUMPDEST PUSH1 0x20 DUP3 ADD SWAP1 POP SWAP2 SWAP1 POP JUMP JUMPDEST PUSH0 PUSH1 0x20 DUP3 ADD SWAP1 POP DUP2 DUP2 SUB PUSH0 DUP4 ADD MSTORE PUSH2 0xB03 DUP2 PUSH2 0xACA JUMP JUMPDEST SWAP1 POP SWAP2 SWAP1 POP JUMP JUMPDEST PUSH32 0x4E487B7100000000000000000000000000000000000000000000000000000000 PUSH0 MSTORE PUSH1 0x32 PUSH1 0x4 MSTORE PUSH1 0x24 PUSH0 REVERT JUMPDEST PUSH32 0x4E487B7100000000000000000000000000000000000000000000000000000000 PUSH0 MSTORE PUSH1 0x22 PUSH1 0x4 MSTORE PUSH1 0x24 PUSH0 REVERT JUMPDEST PUSH0 PUSH1 0x2 DUP3 DIV SWAP1 POP PUSH1 0x1 DUP3 AND DUP1 PUSH2 0xB7B JUMPI PUSH1 0x7F DUP3 AND SWAP2 POP JUMPDEST PUSH1 0x20 DUP3 LT DUP2 SUB PUSH2 0xB8E JUMPI PUSH2 0xB8D PUSH2 0xB37 JUMP JUMPDEST JUMPDEST POP SWAP2 SWAP1 POP JUMP JUMPDEST PUSH0 DUP2 SWAP1 POP DUP2 PUSH0 MSTORE PUSH1 0x20 PUSH0 KECCAK256 SWAP1 POP SWAP2 SWAP1 POP JUMP JUMPDEST PUSH0 PUSH1 0x20 PUSH1 0x1F DUP4 ADD DIV SWAP1 POP SWAP2 SWAP1 POP JUMP JUMPDEST PUSH0 DUP3 DUP3 SHL SWAP1 POP SWAP3 SWAP2 POP POP JUMP JUMPDEST PUSH0 PUSH1 0x8 DUP4 MUL PUSH2 0xBF0 PUSH32 0xFFFFFFFFFFFFFFFFFFFFFFFFFFFFFFFFFFFFFFFFFFFFFFFFFFFFFFFFFFFFFFFF DUP3 PUSH2 0xBB5 JUMP JUMPDEST PUSH2 0xBFA DUP7 DUP4 PUSH2 0xBB5 JUMP JUMPDEST SWAP6 POP DUP1 NOT DUP5 AND SWAP4 POP DUP1 DUP7 AND DUP5 OR SWAP3 POP POP POP SWAP4 SWAP3 POP POP POP JUMP JUMPDEST PUSH0 DUP2 SWAP1 POP SWAP2 SWAP1 POP JUMP JUMPDEST PUSH0 PUSH2 0xC35 PUSH2 0xC30 PUSH2 0xC2B DUP5 PUSH2 0x597 JUMP JUMPDEST PUSH2 0xC12 JUMP JUMPDEST PUSH2 0x597 JUMP JUMPDEST SWAP1 POP SWAP2 SWAP1 POP JUMP JUMPDEST PUSH0 DUP2 SWAP1 POP SWAP2 SWAP1 POP JUMP JUMPDEST PUSH2 0xC4E DUP4 PUSH2 0xC1B JUMP JUMPDEST PUSH2 0xC62 PUSH2 0xC5A DUP3 PUSH2 0xC3C JUMP JUMPDEST DUP5 DUP5 SLOAD PUSH2 0xBC1 JUMP JUMPDEST DUP3 SSTORE POP POP POP POP JUMP JUMPDEST PUSH0 PUSH0 SWAP1 POP SWAP1 JUMP JUMPDEST PUSH2 0xC79 PUSH2 0xC6A JUMP JUMPDEST PUSH2 0xC84 DUP2 DUP5 DUP5 PUSH2 0xC45 JUMP JUMPDEST POP POP POP JUMP JUMPDEST JUMPDEST DUP2 DUP2 LT ISZERO PUSH2 0xCA7 JUMPI PUSH2 0xC9C PUSH0 DUP3 PUSH2 0xC71 JUMP JUMPDEST PUSH1 0x1 DUP2 ADD SWAP1 POP PUSH2 0xC8A JUMP JUMPDEST POP POP JUMP JUMPDEST PUSH1 0x1F DUP3 GT ISZERO PUSH2 0xCEC JUMPI PUSH2 0xCBD DUP2 PUSH2 0xB94 JUMP JUMPDEST PUSH2 0xCC6 DUP5 PUSH2 0xBA6 JUMP JUMPDEST DUP2 ADD PUSH1 0x20 DUP6 LT ISZERO PUSH2 0xCD5 JUMPI DUP2 SWAP1 POP JUMPDEST PUSH2 0xCE9 PUSH2 0xCE1 DUP6 PUSH2 0xBA6 JUMP JUMPDEST DUP4 ADD DUP3 PUSH2 0xC89 JUMP JUMPDEST POP POP JUMPDEST POP POP POP JUMP JUMPDEST PUSH0 DUP3 DUP3 SHR SWAP1 POP SWAP3 SWAP2 POP POP JUMP JUMPDEST PUSH0 PUSH2 0xD0C PUSH0 NOT DUP5 PUSH1 0x8 MUL PUSH2 0xCF1 JUMP JUMPDEST NOT DUP1 DUP4 AND SWAP2 POP POP SWAP3 SWAP2 POP POP JUMP JUMPDEST PUSH0 PUSH2 0xD24 DUP4 DUP4 PUSH2 0xCFD JUMP JUMPDEST SWAP2 POP DUP3 PUSH1 0x2 MUL DUP3 OR SWAP1 POP SWAP3 SWAP2 POP POP JUMP JUMPDEST PUSH2 0xD3D DUP3 PUSH2 0x876 JUMP JUMPDEST PUSH8 0xFFFFFFFFFFFFFFFF DUP2 GT ISZERO PUSH2 0xD56 JUMPI PUSH2 0xD55 PUSH2 0x684 JUMP JUMPDEST JUMPDEST PUSH2 0xD60 DUP3 SLOAD PUSH2 0xB64 JUMP JUMPDEST PUSH2 0xD6B DUP3 DUP3 DUP6 PUSH2 0xCAB JUMP JUMPDEST PUSH0 PUSH1 0x20 SWAP1 POP PUSH1 0x1F DUP4 GT PUSH1 0x1 DUP2 EQ PUSH2 0xD9C JUMPI PUSH0 DUP5 ISZERO PUSH2 0xD8A JUMPI DUP3 DUP8 ADD MLOAD SWAP1 POP JUMPDEST PUSH2 0xD94 DUP6 DUP3 PUSH2 0xD19 JUMP JUMPDEST DUP7 SSTORE POP PUSH2 0xDFB JUMP JUMPDEST PUSH1 0x1F NOT DUP5 AND PUSH2 0xDAA DUP7 PUSH2 0xB94 JUMP JUMPDEST PUSH0 JUMPDEST DUP3 DUP2 LT ISZERO PUSH2 0xDD1 JUMPI DUP5 DUP10 ADD MLOAD DUP3 SSTORE PUSH1 0x1 DUP3 ADD SWAP2 POP PUSH1 0x20 DUP6 ADD SWAP5 POP PUSH1 0x20 DUP2 ADD SWAP1 POP PUSH2 0xDAC JUMP JUMPDEST DUP7 DUP4 LT ISZERO PUSH2 0xDEE JUMPI DUP5 DUP10 ADD MLOAD PUSH2 0xDEA PUSH1 0x1F DUP10 AND DUP3 PUSH2 0xCFD JUMP JUMPDEST DUP4 SSTORE POP JUMPDEST PUSH1 0x1 PUSH1 0x2 DUP9 MUL ADD DUP9 SSTORE POP POP POP JUMPDEST POP POP POP POP POP POP JUMP INVALID LOG2 PUSH5 0x6970667358 0x22 SLT KECCAK256 0x25 0xC5 0xED 0xB1 PUSH2 0x7328 PUSH4 0xEC5019CA CLZ PUSH19 0xC824A7CADC56188FDC37E4DC7D4A8C6793B864 PUSH20 0x6F6C634300081F00330000000000000000000000 "
		},
		"gasEstimates": {
			"creation": {
				"codeDepositCost": "728200",
				"executionCost": "25022",
				"totalCost": "753222"
			},
			"external": {
				"addWaitress(address,string,uint256)": "infinite",
				"addtips()": "119",
				"owner()": "2529",
				"viewWaitress()": "infinite",
				"viewtips()": "312",
				"waitress(uint256)": "infinite"
			}
		},
		"methodIdentifiers": {
			"addWaitress(address,string,uint256)": "b499b79a",
			"addtips()": "6e7301fd",
			"owner()": "8da5cb5b",
			"viewWaitress()": "e83a1b00",
			"viewtips()": "2a08deda",
			"waitress(uint256)": "ec066e3a"
		}
	},
	"abi": [
		{
			"inputs": [],
			"stateMutability": "nonpayable",
			"type": "constructor"
		},
		{
			"inputs": [
				{
					"internalType": "address payable",
					"name": "_walletAddress",
					"type": "address"
				},
				{
					"internalType": "string",
					"name": "_name",
					"type": "string"
				},
				{
					"internalType": "uint256",
					"name": "_percent",
					"type": "uint256"
				}
			],
			"name": "addWaitress",
			"outputs": [],
			"stateMutability": "nonpayable",
			"type": "function"
		},
		{
			"inputs": [],
			"name": "addtips",
			"outputs": [],
			"stateMutability": "payable",
			"type": "function"
		},
		{
			"inputs": [],
			"name": "owner",
			"outputs": [
				{
					"internalType": "address",
					"name": "",
					"type": "address"
				}
			],
			"stateMutability": "view",
			"type": "function"
		},
		{
			"inputs": [],
			"name": "viewWaitress",
			"outputs": [
				{
					"components": [
						{
							"internalType": "address payable",
							"name": "walletAddress",
							"type": "address"
						},
						{
							"internalType": "string",
							"name": "name",
							"type": "string"
						},
						{
							"internalType": "uint256",
							"name": "percent",
							"type": "uint256"
						}
					],
					"internalType": "struct tips.Waitress[]",
					"name": "",
					"type": "tuple[]"
				}
			],
			"stateMutability": "view",
			"type": "function"
		},
		{
			"inputs": [],
			"name": "viewtips",
			"outputs": [
				{
					"internalType": "uint256",
					"name": "",
					"type": "uint256"
				}
			],
			"stateMutability": "view",
			"type": "function"
		},
		{
			"inputs": [
				{
					"internalType": "uint256",
					"name": "",
					"type": "uint256"
				}
			],
			"name": "waitress",
			"outputs": [
				{
					"internalType": "address payable",
					"name": "walletAddress",
					"type": "address"
				},
				{
					"internalType": "string",
					"name": "name",
					"type": "string"
				},
				{
					"internalType": "uint256",
					"name": "percent",
					"type": "uint256"
				}
			],
			"stateMutability": "view",
			"type": "function"
		}
	]
}