{
	"data": {
		"bytecode": {
			"linkReferences": {},
			"object": "6080604052348015600e575f5ffd5b50335f5f6101000a81548173ffffffffffffffffffffffffffffffffffffffff021916908373ffffffffffffffffffffffffffffffffffffffff1602179055506118468061005b5f395ff3fe60806040526004361061006f575f3560e01c80636e7301fd1161004d5780636e7301fd146100ef5780637943da69146100f9578063b499b79a14610103578063e83a1b001461012b5761006f565b80632a08deda14610073578063369a489d1461009d5780633c8e3b52146100c5575b5f5ffd5b34801561007e575f5ffd5b50610087610155565b6040516100949190610b0e565b60405180910390f35b3480156100a8575f5ffd5b506100c360048036038101906100be9190610b92565b61015c565b005b3480156100d0575f5ffd5b506100d96103be565b6040516100e69190610b0e565b60405180910390f35b6100f761041b565b005b61010161041d565b005b34801561010e575f5ffd5b5061012960048036038101906101249190610d5e565b6106d8565b005b348015610136575f5ffd5b5061013f610954565b60405161014c9190610f50565b60405180910390f35b5f47905090565b5f5f9054906101000a900473ffffffffffffffffffffffffffffffffffffffff1673ffffffffffffffffffffffffffffffffffffffff163373ffffffffffffffffffffffffffffffffffffffff16146101ea576040517f08c379a00000000000000000000000000000000000000000000000000000000081526004016101e190610fca565b60405180910390fd5b5f5f90505b6001805490508110156103ba578173ffffffffffffffffffffffffffffffffffffffff166001828154811061022757610226610fe8565b5b905f5260205f2090600302015f015f9054906101000a900473ffffffffffffffffffffffffffffffffffffffff1673ffffffffffffffffffffffffffffffffffffffff16036103ad5760018080805490506102829190611042565b8154811061029357610292610fe8565b5b905f5260205f209060030201600182815481106102b3576102b2610fe8565b5b905f5260205f2090600302015f82015f9054906101000a900473ffffffffffffffffffffffffffffffffffffffff16815f015f6101000a81548173ffffffffffffffffffffffffffffffffffffffff021916908373ffffffffffffffffffffffffffffffffffffffff160217905550600182018160010190816103369190611287565b506002820154816002015590505060018054806103565761035561136c565b5b600190038181905f5260205f2090600302015f5f82015f6101000a81549073ffffffffffffffffffffffffffffffffffffffff0219169055600182015f61039d9190610a9e565b600282015f9055505090556103ba565b80806001019150506101ef565b5050565b5f5f5f90505f5f90505b60018054905081101561041357600181815481106103e9576103e8610fe8565b5b905f5260205f20906003020160020154826104049190611399565b915080806001019150506103c8565b508091505090565b565b5f5f9054906101000a900473ffffffffffffffffffffffffffffffffffffffff1673ffffffffffffffffffffffffffffffffffffffff163373ffffffffffffffffffffffffffffffffffffffff16146104ab576040517f08c379a00000000000000000000000000000000000000000000000000000000081526004016104a290610fca565b60405180910390fd5b5f34116104ed576040517f08c379a00000000000000000000000000000000000000000000000000000000081526004016104e490611416565b60405180910390fd5b5f60018054905011610534576040517f08c379a000000000000000000000000000000000000000000000000000000000815260040161052b9061147e565b60405180910390fd5b606461053e6103be565b111561057f576040517f08c379a00000000000000000000000000000000000000000000000000000000081526004016105769061150c565b60405180910390fd5b5f3490505f5f90505b6001805490508110156106d4575f6064600183815481106105ac576105ab610fe8565b5b905f5260205f20906003020160020154846105c7919061152a565b6105d19190611598565b90505f8111156106c6575f600183815481106105f0576105ef610fe8565b5b905f5260205f2090600302015f015f9054906101000a900473ffffffffffffffffffffffffffffffffffffffff1673ffffffffffffffffffffffffffffffffffffffff1682604051610641906115f5565b5f6040518083038185875af1925050503d805f811461067b576040519150601f19603f3d011682016040523d82523d5f602084013e610680565b606091505b50509050806106c4576040517f08c379a00000000000000000000000000000000000000000000000000000000081526004016106bb90611653565b60405180910390fd5b505b508080600101915050610588565b5050565b5f5f9054906101000a900473ffffffffffffffffffffffffffffffffffffffff1673ffffffffffffffffffffffffffffffffffffffff163373ffffffffffffffffffffffffffffffffffffffff1614610766576040517f08c379a000000000000000000000000000000000000000000000000000000000815260040161075d90610fca565b60405180910390fd5b5f5f90505b600180549050811015610834578373ffffffffffffffffffffffffffffffffffffffff16600182815481106107a3576107a2610fe8565b5b905f5260205f2090600302015f015f9054906101000a900473ffffffffffffffffffffffffffffffffffffffff1673ffffffffffffffffffffffffffffffffffffffff1603610827576040517f08c379a000000000000000000000000000000000000000000000000000000000815260040161081e906116bb565b60405180910390fd5b808060010191505061076b565b505f61083e6103be565b90506064828261084e9190611399565b111561088f576040517f08c379a000000000000000000000000000000000000000000000000000000000815260040161088690611723565b60405180910390fd5b600160405180606001604052808673ffffffffffffffffffffffffffffffffffffffff16815260200185815260200184815250908060018154018082558091505060019003905f5260205f2090600302015f909190919091505f820151815f015f6101000a81548173ffffffffffffffffffffffffffffffffffffffff021916908373ffffffffffffffffffffffffffffffffffffffff16021790555060208201518160010190816109419190611741565b5060408201518160020155505050505050565b60606001805480602002602001604051908101604052809291908181526020015f905b82821015610a95578382905f5260205f2090600302016040518060600160405290815f82015f9054906101000a900473ffffffffffffffffffffffffffffffffffffffff1673ffffffffffffffffffffffffffffffffffffffff1673ffffffffffffffffffffffffffffffffffffffff1681526020016001820180546109fc906110a2565b80601f0160208091040260200160405190810160405280929190818152602001828054610a28906110a2565b8015610a735780601f10610a4a57610100808354040283529160200191610a73565b820191905f5260205f20905b815481529060010190602001808311610a5657829003601f168201915b5050505050815260200160028201548152505081526020019060010190610977565b50505050905090565b508054610aaa906110a2565b5f825580601f10610abb5750610ad8565b601f0160209004905f5260205f2090810190610ad79190610adb565b5b50565b5b80821115610af2575f815f905550600101610adc565b5090565b5f819050919050565b610b0881610af6565b82525050565b5f602082019050610b215f830184610aff565b92915050565b5f604051905090565b5f5ffd5b5f5ffd5b5f73ffffffffffffffffffffffffffffffffffffffff82169050919050565b5f610b6182610b38565b9050919050565b610b7181610b57565b8114610b7b575f5ffd5b50565b5f81359050610b8c81610b68565b92915050565b5f60208284031215610ba757610ba6610b30565b5b5f610bb484828501610b7e565b91505092915050565b5f610bc782610b38565b9050919050565b610bd781610bbd565b8114610be1575f5ffd5b50565b5f81359050610bf281610bce565b92915050565b5f5ffd5b5f5ffd5b5f601f19601f8301169050919050565b7f4e487b71000000000000000000000000000000000000000000000000000000005f52604160045260245ffd5b610c4682610c00565b810181811067ffffffffffffffff82111715610c6557610c64610c10565b5b80604052505050565b5f610c77610b27565b9050610c838282610c3d565b919050565b5f67ffffffffffffffff821115610ca257610ca1610c10565b5b610cab82610c00565b9050602081019050919050565b828183375f83830152505050565b5f610cd8610cd384610c88565b610c6e565b905082815260208101848484011115610cf457610cf3610bfc565b5b610cff848285610cb8565b509392505050565b5f82601f830112610d1b57610d1a610bf8565b5b8135610d2b848260208601610cc6565b91505092915050565b610d3d81610af6565b8114610d47575f5ffd5b50565b5f81359050610d5881610d34565b92915050565b5f5f5f60608486031215610d7557610d74610b30565b5b5f610d8286828701610be4565b935050602084013567ffffffffffffffff811115610da357610da2610b34565b5b610daf86828701610d07565b9250506040610dc086828701610d4a565b9150509250925092565b5f81519050919050565b5f82825260208201905092915050565b5f819050602082019050919050565b610dfc81610bbd565b82525050565b5f81519050919050565b5f82825260208201905092915050565b8281835e5f83830152505050565b5f610e3482610e02565b610e3e8185610e0c565b9350610e4e818560208601610e1c565b610e5781610c00565b840191505092915050565b610e6b81610af6565b82525050565b5f606083015f830151610e865f860182610df3565b5060208301518482036020860152610e9e8282610e2a565b9150506040830151610eb36040860182610e62565b508091505092915050565b5f610ec98383610e71565b905092915050565b5f602082019050919050565b5f610ee782610dca565b610ef18185610dd4565b935083602082028501610f0385610de4565b805f5b85811015610f3e5784840389528151610f1f8582610ebe565b9450610f2a83610ed1565b925060208a01995050600181019050610f06565b50829750879550505050505092915050565b5f6020820190508181035f830152610f688184610edd565b905092915050565b5f82825260208201905092915050565b7f4f6e6c79206f776e65722063616e2063616c6c000000000000000000000000005f82015250565b5f610fb4601383610f70565b9150610fbf82610f80565b602082019050919050565b5f6020820190508181035f830152610fe181610fa8565b9050919050565b7f4e487b71000000000000000000000000000000000000000000000000000000005f52603260045260245ffd5b7f4e487b71000000000000000000000000000000000000000000000000000000005f52601160045260245ffd5b5f61104c82610af6565b915061105783610af6565b925082820390508181111561106f5761106e611015565b5b92915050565b7f4e487b71000000000000000000000000000000000000000000000000000000005f52602260045260245ffd5b5f60028204905060018216806110b957607f821691505b6020821081036110cc576110cb611075565b5b50919050565b5f815490506110e0816110a2565b9050919050565b5f819050815f5260205f209050919050565b5f6020601f8301049050919050565b5f82821b905092915050565b5f600883026111437fffffffffffffffffffffffffffffffffffffffffffffffffffffffffffffffff82611108565b61114d8683611108565b95508019841693508086168417925050509392505050565b5f819050919050565b5f61118861118361117e84610af6565b611165565b610af6565b9050919050565b5f819050919050565b6111a18361116e565b6111b56111ad8261118f565b848454611114565b825550505050565b5f5f905090565b6111cc6111bd565b6111d7818484611198565b505050565b5b818110156111fa576111ef5f826111c4565b6001810190506111dd565b5050565b601f82111561123f57611210816110e7565b611219846110f9565b81016020851015611228578190505b61123c611234856110f9565b8301826111dc565b50505b505050565b5f82821c905092915050565b5f61125f5f1984600802611244565b1980831691505092915050565b5f6112778383611250565b9150826002028217905092915050565b81810361129557505061136a565b61129e826110d2565b67ffffffffffffffff8111156112b7576112b6610c10565b5b6112c182546110a2565b6112cc8282856111fe565b5f601f8311600181146112f9575f84156112e7578287015490505b6112f1858261126c565b865550611363565b601f198416611307876110e7565b9650611312866110e7565b5f5b8281101561133957848901548255600182019150600185019450602081019050611314565b868310156113565784890154611352601f891682611250565b8355505b6001600288020188555050505b5050505050505b565b7f4e487b71000000000000000000000000000000000000000000000000000000005f52603160045260245ffd5b5f6113a382610af6565b91506113ae83610af6565b92508282019050808211156113c6576113c5611015565b5b92915050565b7f506c6561736520707574206d6f6e657920696e2056414c5545206669656c64005f82015250565b5f611400601f83610f70565b915061140b826113cc565b602082019050919050565b5f6020820190508181035f83015261142d816113f4565b9050919050565b7f4e6f20776169747265737320696e206c697374000000000000000000000000005f82015250565b5f611468601383610f70565b915061147382611434565b602082019050919050565b5f6020820190508181035f8301526114958161145c565b9050919050565b7f5365747570206572726f723a20546f74616c2070657263656e7420696e206c695f8201527f7374206578636565647320313030250000000000000000000000000000000000602082015250565b5f6114f6602f83610f70565b91506115018261149c565b604082019050919050565b5f6020820190508181035f830152611523816114ea565b9050919050565b5f61153482610af6565b915061153f83610af6565b925082820261154d81610af6565b9150828204841483151761156457611563611015565b5b5092915050565b7f4e487b71000000000000000000000000000000000000000000000000000000005f52601260045260245ffd5b5f6115a282610af6565b91506115ad83610af6565b9250826115bd576115bc61156b565b5b828204905092915050565b5f81905092915050565b50565b5f6115e05f836115c8565b91506115eb826115d2565b5f82019050919050565b5f6115ff826115d5565b9150819050919050565b7f5472616e73666572206661696c656400000000000000000000000000000000005f82015250565b5f61163d600f83610f70565b915061164882611609565b602082019050919050565b5f6020820190508181035f83015261166a81611631565b9050919050565b7f576169747265737320616c7265616479206578697374730000000000000000005f82015250565b5f6116a5601783610f70565b91506116b082611671565b602082019050919050565b5f6020820190508181035f8301526116d281611699565b9050919050565b7f546f74616c2070657263656e74206578636565647320313030250000000000005f82015250565b5f61170d601a83610f70565b9150611718826116d9565b602082019050919050565b5f6020820190508181035f83015261173a81611701565b9050919050565b61174a82610e02565b67ffffffffffffffff81111561176357611762610c10565b5b61176d82546110a2565b6117788282856111fe565b5f60209050601f8311600181146117a9575f8415611797578287015190505b6117a1858261126c565b865550611808565b601f1984166117b7866110e7565b5f5b828110156117de578489015182556001820191506020850194506020810190506117b9565b868310156117fb57848901516117f7601f891682611250565b8355505b6001600288020188555050505b50505050505056fea264697066735822122047a28a1f48a06b15e0af65716c6d036fadd13118f517445a09fd2010caad80a964736f6c634300081f0033",
			"opcodes": "PUSH1 0x80 PUSH1 0x40 MSTORE CALLVALUE DUP1 ISZERO PUSH1 0xE JUMPI PUSH0 PUSH0 REVERT JUMPDEST POP CALLER PUSH0 PUSH0 PUSH2 0x100 EXP DUP2 SLOAD DUP2 PUSH20 0xFFFFFFFFFFFFFFFFFFFFFFFFFFFFFFFFFFFFFFFF MUL NOT AND SWAP1 DUP4 PUSH20 0xFFFFFFFFFFFFFFFFFFFFFFFFFFFFFFFFFFFFFFFF AND MUL OR SWAP1 SSTORE POP PUSH2 0x1846 DUP1 PUSH2 0x5B PUSH0 CODECOPY PUSH0 RETURN INVALID PUSH1 0x80 PUSH1 0x40 MSTORE PUSH1 0x4 CALLDATASIZE LT PUSH2 0x6F JUMPI PUSH0 CALLDATALOAD PUSH1 0xE0 SHR DUP1 PUSH4 0x6E7301FD GT PUSH2 0x4D JUMPI DUP1 PUSH4 0x6E7301FD EQ PUSH2 0xEF JUMPI DUP1 PUSH4 0x7943DA69 EQ PUSH2 0xF9 JUMPI DUP1 PUSH4 0xB499B79A EQ PUSH2 0x103 JUMPI DUP1 PUSH4 0xE83A1B00 EQ PUSH2 0x12B JUMPI PUSH2 0x6F JUMP JUMPDEST DUP1 PUSH4 0x2A08DEDA EQ PUSH2 0x73 JUMPI DUP1 PUSH4 0x369A489D EQ PUSH2 0x9D JUMPI DUP1 PUSH4 0x3C8E3B52 EQ PUSH2 0xC5 JUMPI JUMPDEST PUSH0 PUSH0 REVERT JUMPDEST CALLVALUE DUP1 ISZERO PUSH2 0x7E JUMPI PUSH0 PUSH0 REVERT JUMPDEST POP PUSH2 0x87 PUSH2 0x155 JUMP JUMPDEST PUSH1 0x40 MLOAD PUSH2 0x94 SWAP2 SWAP1 PUSH2 0xB0E JUMP JUMPDEST PUSH1 0x40 MLOAD DUP1 SWAP2 SUB SWAP1 RETURN JUMPDEST CALLVALUE DUP1 ISZERO PUSH2 0xA8 JUMPI PUSH0 PUSH0 REVERT JUMPDEST POP PUSH2 0xC3 PUSH1 0x4 DUP1 CALLDATASIZE SUB DUP2 ADD SWAP1 PUSH2 0xBE SWAP2 SWAP1 PUSH2 0xB92 JUMP JUMPDEST PUSH2 0x15C JUMP JUMPDEST STOP JUMPDEST CALLVALUE DUP1 ISZERO PUSH2 0xD0 JUMPI PUSH0 PUSH0 REVERT JUMPDEST POP PUSH2 0xD9 PUSH2 0x3BE JUMP JUMPDEST PUSH1 0x40 MLOAD PUSH2 0xE6 SWAP2 SWAP1 PUSH2 0xB0E JUMP JUMPDEST PUSH1 0x40 MLOAD DUP1 SWAP2 SUB SWAP1 RETURN JUMPDEST PUSH2 0xF7 PUSH2 0x41B JUMP JUMPDEST STOP JUMPDEST PUSH2 0x101 PUSH2 0x41D JUMP JUMPDEST STOP JUMPDEST CALLVALUE DUP1 ISZERO PUSH2 0x10E JUMPI PUSH0 PUSH0 REVERT JUMPDEST POP PUSH2 0x129 PUSH1 0x4 DUP1 CALLDATASIZE SUB DUP2 ADD SWAP1 PUSH2 0x124 SWAP2 SWAP1 PUSH2 0xD5E JUMP JUMPDEST PUSH2 0x6D8 JUMP JUMPDEST STOP JUMPDEST CALLVALUE DUP1 ISZERO PUSH2 0x136 JUMPI PUSH0 PUSH0 REVERT JUMPDEST POP PUSH2 0x13F PUSH2 0x954 JUMP JUMPDEST PUSH1 0x40 MLOAD PUSH2 0x14C SWAP2 SWAP1 PUSH2 0xF50 JUMP JUMPDEST PUSH1 0x40 MLOAD DUP1 SWAP2 SUB SWAP1 RETURN JUMPDEST PUSH0 SELFBALANCE SWAP1 POP SWAP1 JUMP JUMPDEST PUSH0 PUSH0 SWAP1 SLOAD SWAP1 PUSH2 0x100 EXP SWAP1 DIV PUSH20 0xFFFFFFFFFFFFFFFFFFFFFFFFFFFFFFFFFFFFFFFF AND PUSH20 0xFFFFFFFFFFFFFFFFFFFFFFFFFFFFFFFFFFFFFFFF AND CALLER PUSH20 0xFFFFFFFFFFFFFFFFFFFFFFFFFFFFFFFFFFFFFFFF AND EQ PUSH2 0x1EA JUMPI PUSH1 0x40 MLOAD PUSH32 0x8C379A000000000000000000000000000000000000000000000000000000000 DUP2 MSTORE PUSH1 0x4 ADD PUSH2 0x1E1 SWAP1 PUSH2 0xFCA JUMP JUMPDEST PUSH1 0x40 MLOAD DUP1 SWAP2 SUB SWAP1 REVERT JUMPDEST PUSH0 PUSH0 SWAP1 POP JUMPDEST PUSH1 0x1 DUP1 SLOAD SWAP1 POP DUP2 LT ISZERO PUSH2 0x3BA JUMPI DUP2 PUSH20 0xFFFFFFFFFFFFFFFFFFFFFFFFFFFFFFFFFFFFFFFF AND PUSH1 0x1 DUP3 DUP2 SLOAD DUP2 LT PUSH2 0x227 JUMPI PUSH2 0x226 PUSH2 0xFE8 JUMP JUMPDEST JUMPDEST SWAP1 PUSH0 MSTORE PUSH1 0x20 PUSH0 KECCAK256 SWAP1 PUSH1 0x3 MUL ADD PUSH0 ADD PUSH0 SWAP1 SLOAD SWAP1 PUSH2 0x100 EXP SWAP1 DIV PUSH20 0xFFFFFFFFFFFFFFFFFFFFFFFFFFFFFFFFFFFFFFFF AND PUSH20 0xFFFFFFFFFFFFFFFFFFFFFFFFFFFFFFFFFFFFFFFF AND SUB PUSH2 0x3AD JUMPI PUSH1 0x1 DUP1 DUP1 DUP1 SLOAD SWAP1 POP PUSH2 0x282 SWAP2 SWAP1 PUSH2 0x1042 JUMP JUMPDEST DUP2 SLOAD DUP2 LT PUSH2 0x293 JUMPI PUSH2 0x292 PUSH2 0xFE8 JUMP JUMPDEST JUMPDEST SWAP1 PUSH0 MSTORE PUSH1 0x20 PUSH0 KECCAK256 SWAP1 PUSH1 0x3 MUL ADD PUSH1 0x1 DUP3 DUP2 SLOAD DUP2 LT PUSH2 0x2B3 JUMPI PUSH2 0x2B2 PUSH2 0xFE8 JUMP JUMPDEST JUMPDEST SWAP1 PUSH0 MSTORE PUSH1 0x20 PUSH0 KECCAK256 SWAP1 PUSH1 0x3 MUL ADD PUSH0 DUP3 ADD PUSH0 SWAP1 SLOAD SWAP1 PUSH2 0x100 EXP SWAP1 DIV PUSH20 0xFFFFFFFFFFFFFFFFFFFFFFFFFFFFFFFFFFFFFFFF AND DUP2 PUSH0 ADD PUSH0 PUSH2 0x100 EXP DUP2 SLOAD DUP2 PUSH20 0xFFFFFFFFFFFFFFFFFFFFFFFFFFFFFFFFFFFFFFFF MUL NOT AND SWAP1 DUP4 PUSH20 0xFFFFFFFFFFFFFFFFFFFFFFFFFFFFFFFFFFFFFFFF AND MUL OR SWAP1 SSTORE POP PUSH1 0x1 DUP3 ADD DUP2 PUSH1 0x1 ADD SWAP1 DUP2 PUSH2 0x336 SWAP2 SWAP1 PUSH2 0x1287 JUMP JUMPDEST POP PUSH1 0x2 DUP3 ADD SLOAD DUP2 PUSH1 0x2 ADD SSTORE SWAP1 POP POP PUSH1 0x1 DUP1 SLOAD DUP1 PUSH2 0x356 JUMPI PUSH2 0x355 PUSH2 0x136C JUMP JUMPDEST JUMPDEST PUSH1 0x1 SWAP1 SUB DUP2 DUP2 SWAP1 PUSH0 MSTORE PUSH1 0x20 PUSH0 KECCAK256 SWAP1 PUSH1 0x3 MUL ADD PUSH0 PUSH0 DUP3 ADD PUSH0 PUSH2 0x100 EXP DUP2 SLOAD SWAP1 PUSH20 0xFFFFFFFFFFFFFFFFFFFFFFFFFFFFFFFFFFFFFFFF MUL NOT AND SWAP1 SSTORE PUSH1 0x1 DUP3 ADD PUSH0 PUSH2 0x39D SWAP2 SWAP1 PUSH2 0xA9E JUMP JUMPDEST PUSH1 0x2 DUP3 ADD PUSH0 SWAP1 SSTORE POP POP SWAP1 SSTORE PUSH2 0x3BA JUMP JUMPDEST DUP1 DUP1 PUSH1 0x1 ADD SWAP2 POP POP PUSH2 0x1EF JUMP JUMPDEST POP POP JUMP JUMPDEST PUSH0 PUSH0 PUSH0 SWAP1 POP PUSH0 PUSH0 SWAP1 POP JUMPDEST PUSH1 0x1 DUP1 SLOAD SWAP1 POP DUP2 LT ISZERO PUSH2 0x413 JUMPI PUSH1 0x1 DUP2 DUP2 SLOAD DUP2 LT PUSH2 0x3E9 JUMPI PUSH2 0x3E8 PUSH2 0xFE8 JUMP JUMPDEST JUMPDEST SWAP1 PUSH0 MSTORE PUSH1 0x20 PUSH0 KECCAK256 SWAP1 PUSH1 0x3 MUL ADD PUSH1 0x2 ADD SLOAD DUP3 PUSH2 0x404 SWAP2 SWAP1 PUSH2 0x1399 JUMP JUMPDEST SWAP2 POP DUP1 DUP1 PUSH1 0x1 ADD SWAP2 POP POP PUSH2 0x3C8 JUMP JUMPDEST POP DUP1 SWAP2 POP POP SWAP1 JUMP JUMPDEST JUMP JUMPDEST PUSH0 PUSH0 SWAP1 SLOAD SWAP1 PUSH2 0x100 EXP SWAP1 DIV PUSH20 0xFFFFFFFFFFFFFFFFFFFFFFFFFFFFFFFFFFFFFFFF AND PUSH20 0xFFFFFFFFFFFFFFFFFFFFFFFFFFFFFFFFFFFFFFFF AND CALLER PUSH20 0xFFFFFFFFFFFFFFFFFFFFFFFFFFFFFFFFFFFFFFFF AND EQ PUSH2 0x4AB JUMPI PUSH1 0x40 MLOAD PUSH32 0x8C379A000000000000000000000000000000000000000000000000000000000 DUP2 MSTORE PUSH1 0x4 ADD PUSH2 0x4A2 SWAP1 PUSH2 0xFCA JUMP JUMPDEST PUSH1 0x40 MLOAD DUP1 SWAP2 SUB SWAP1 REVERT JUMPDEST PUSH0 CALLVALUE GT PUSH2 0x4ED JUMPI PUSH1 0x40 MLOAD PUSH32 0x8C379A000000000000000000000000000000000000000000000000000000000 DUP2 MSTORE PUSH1 0x4 ADD PUSH2 0x4E4 SWAP1 PUSH2 0x1416 JUMP JUMPDEST PUSH1 0x40 MLOAD DUP1 SWAP2 SUB SWAP1 REVERT JUMPDEST PUSH0 PUSH1 0x1 DUP1 SLOAD SWAP1 POP GT PUSH2 0x534 JUMPI PUSH1 0x40 MLOAD PUSH32 0x8C379A000000000000000000000000000000000000000000000000000000000 DUP2 MSTORE PUSH1 0x4 ADD PUSH2 0x52B SWAP1 PUSH2 0x147E JUMP JUMPDEST PUSH1 0x40 MLOAD DUP1 SWAP2 SUB SWAP1 REVERT JUMPDEST PUSH1 0x64 PUSH2 0x53E PUSH2 0x3BE JUMP JUMPDEST GT ISZERO PUSH2 0x57F JUMPI PUSH1 0x40 MLOAD PUSH32 0x8C379A000000000000000000000000000000000000000000000000000000000 DUP2 MSTORE PUSH1 0x4 ADD PUSH2 0x576 SWAP1 PUSH2 0x150C JUMP JUMPDEST PUSH1 0x40 MLOAD DUP1 SWAP2 SUB SWAP1 REVERT JUMPDEST PUSH0 CALLVALUE SWAP1 POP PUSH0 PUSH0 SWAP1 POP JUMPDEST PUSH1 0x1 DUP1 SLOAD SWAP1 POP DUP2 LT ISZERO PUSH2 0x6D4 JUMPI PUSH0 PUSH1 0x64 PUSH1 0x1 DUP4 DUP2 SLOAD DUP2 LT PUSH2 0x5AC JUMPI PUSH2 0x5AB PUSH2 0xFE8 JUMP JUMPDEST JUMPDEST SWAP1 PUSH0 MSTORE PUSH1 0x20 PUSH0 KECCAK256 SWAP1 PUSH1 0x3 MUL ADD PUSH1 0x2 ADD SLOAD DUP5 PUSH2 0x5C7 SWAP2 SWAP1 PUSH2 0x152A JUMP JUMPDEST PUSH2 0x5D1 SWAP2 SWAP1 PUSH2 0x1598 JUMP JUMPDEST SWAP1 POP PUSH0 DUP2 GT ISZERO PUSH2 0x6C6 JUMPI PUSH0 PUSH1 0x1 DUP4 DUP2 SLOAD DUP2 LT PUSH2 0x5F0 JUMPI PUSH2 0x5EF PUSH2 0xFE8 JUMP JUMPDEST JUMPDEST SWAP1 PUSH0 MSTORE PUSH1 0x20 PUSH0 KECCAK256 SWAP1 PUSH1 0x3 MUL ADD PUSH0 ADD PUSH0 SWAP1 SLOAD SWAP1 PUSH2 0x100 EXP SWAP1 DIV PUSH20 0xFFFFFFFFFFFFFFFFFFFFFFFFFFFFFFFFFFFFFFFF AND PUSH20 0xFFFFFFFFFFFFFFFFFFFFFFFFFFFFFFFFFFFFFFFF AND DUP3 PUSH1 0x40 MLOAD PUSH2 0x641 SWAP1 PUSH2 0x15F5 JUMP JUMPDEST PUSH0 PUSH1 0x40 MLOAD DUP1 DUP4 SUB DUP2 DUP6 DUP8 GAS CALL SWAP3 POP POP POP RETURNDATASIZE DUP1 PUSH0 DUP2 EQ PUSH2 0x67B JUMPI PUSH1 0x40 MLOAD SWAP2 POP PUSH1 0x1F NOT PUSH1 0x3F RETURNDATASIZE ADD AND DUP3 ADD PUSH1 0x40 MSTORE RETURNDATASIZE DUP3 MSTORE RETURNDATASIZE PUSH0 PUSH1 0x20 DUP5 ADD RETURNDATACOPY PUSH2 0x680 JUMP JUMPDEST PUSH1 0x60 SWAP2 POP JUMPDEST POP POP SWAP1 POP DUP1 PUSH2 0x6C4 JUMPI PUSH1 0x40 MLOAD PUSH32 0x8C379A000000000000000000000000000000000000000000000000000000000 DUP2 MSTORE PUSH1 0x4 ADD PUSH2 0x6BB SWAP1 PUSH2 0x1653 JUMP JUMPDEST PUSH1 0x40 MLOAD DUP1 SWAP2 SUB SWAP1 REVERT JUMPDEST POP JUMPDEST POP DUP1 DUP1 PUSH1 0x1 ADD SWAP2 POP POP PUSH2 0x588 JUMP JUMPDEST POP POP JUMP JUMPDEST PUSH0 PUSH0 SWAP1 SLOAD SWAP1 PUSH2 0x100 EXP SWAP1 DIV PUSH20 0xFFFFFFFFFFFFFFFFFFFFFFFFFFFFFFFFFFFFFFFF AND PUSH20 0xFFFFFFFFFFFFFFFFFFFFFFFFFFFFFFFFFFFFFFFF AND CALLER PUSH20 0xFFFFFFFFFFFFFFFFFFFFFFFFFFFFFFFFFFFFFFFF AND EQ PUSH2 0x766 JUMPI PUSH1 0x40 MLOAD PUSH32 0x8C379A000000000000000000000000000000000000000000000000000000000 DUP2 MSTORE PUSH1 0x4 ADD PUSH2 0x75D SWAP1 PUSH2 0xFCA JUMP JUMPDEST PUSH1 0x40 MLOAD DUP1 SWAP2 SUB SWAP1 REVERT JUMPDEST PUSH0 PUSH0 SWAP1 POP JUMPDEST PUSH1 0x1 DUP1 SLOAD SWAP1 POP DUP2 LT ISZERO PUSH2 0x834 JUMPI DUP4 PUSH20 0xFFFFFFFFFFFFFFFFFFFFFFFFFFFFFFFFFFFFFFFF AND PUSH1 0x1 DUP3 DUP2 SLOAD DUP2 LT PUSH2 0x7A3 JUMPI PUSH2 0x7A2 PUSH2 0xFE8 JUMP JUMPDEST JUMPDEST SWAP1 PUSH0 MSTORE PUSH1 0x20 PUSH0 KECCAK256 SWAP1 PUSH1 0x3 MUL ADD PUSH0 ADD PUSH0 SWAP1 SLOAD SWAP1 PUSH2 0x100 EXP SWAP1 DIV PUSH20 0xFFFFFFFFFFFFFFFFFFFFFFFFFFFFFFFFFFFFFFFF AND PUSH20 0xFFFFFFFFFFFFFFFFFFFFFFFFFFFFFFFFFFFFFFFF AND SUB PUSH2 0x827 JUMPI PUSH1 0x40 MLOAD PUSH32 0x8C379A000000000000000000000000000000000000000000000000000000000 DUP2 MSTORE PUSH1 0x4 ADD PUSH2 0x81E SWAP1 PUSH2 0x16BB JUMP JUMPDEST PUSH1 0x40 MLOAD DUP1 SWAP2 SUB SWAP1 REVERT JUMPDEST DUP1 DUP1 PUSH1 0x1 ADD SWAP2 POP POP PUSH2 0x76B JUMP JUMPDEST POP PUSH0 PUSH2 0x83E PUSH2 0x3BE JUMP JUMPDEST SWAP1 POP PUSH1 0x64 DUP3 DUP3 PUSH2 0x84E SWAP2 SWAP1 PUSH2 0x1399 JUMP JUMPDEST GT ISZERO PUSH2 0x88F JUMPI PUSH1 0x40 MLOAD PUSH32 0x8C379A000000000000000000000000000000000000000000000000000000000 DUP2 MSTORE PUSH1 0x4 ADD PUSH2 0x886 SWAP1 PUSH2 0x1723 JUMP JUMPDEST PUSH1 0x40 MLOAD DUP1 SWAP2 SUB SWAP1 REVERT JUMPDEST PUSH1 0x1 PUSH1 0x40 MLOAD DUP1 PUSH1 0x60 ADD PUSH1 0x40 MSTORE DUP1 DUP7 PUSH20 0xFFFFFFFFFFFFFFFFFFFFFFFFFFFFFFFFFFFFFFFF AND DUP2 MSTORE PUSH1 0x20 ADD DUP6 DUP2 MSTORE PUSH1 0x20 ADD DUP5 DUP2 MSTORE POP SWAP1 DUP1 PUSH1 0x1 DUP2 SLOAD ADD DUP1 DUP3 SSTORE DUP1 SWAP2 POP POP PUSH1 0x1 SWAP1 SUB SWAP1 PUSH0 MSTORE PUSH1 0x20 PUSH0 KECCAK256 SWAP1 PUSH1 0x3 MUL ADD PUSH0 SWAP1 SWAP2 SWAP1 SWAP2 SWAP1 SWAP2 POP PUSH0 DUP3 ADD MLOAD DUP2 PUSH0 ADD PUSH0 PUSH2 0x100 EXP DUP2 SLOAD DUP2 PUSH20 0xFFFFFFFFFFFFFFFFFFFFFFFFFFFFFFFFFFFFFFFF MUL NOT AND SWAP1 DUP4 PUSH20 0xFFFFFFFFFFFFFFFFFFFFFFFFFFFFFFFFFFFFFFFF AND MUL OR SWAP1 SSTORE POP PUSH1 0x20 DUP3 ADD MLOAD DUP2 PUSH1 0x1 ADD SWAP1 DUP2 PUSH2 0x941 SWAP2 SWAP1 PUSH2 0x1741 JUMP JUMPDEST POP PUSH1 0x40 DUP3 ADD MLOAD DUP2 PUSH1 0x2 ADD SSTORE POP POP POP POP POP POP JUMP JUMPDEST PUSH1 0x60 PUSH1 0x1 DUP1 SLOAD DUP1 PUSH1 0x20 MUL PUSH1 0x20 ADD PUSH1 0x40 MLOAD SWAP1 DUP2 ADD PUSH1 0x40 MSTORE DUP1 SWAP3 SWAP2 SWAP1 DUP2 DUP2 MSTORE PUSH1 0x20 ADD PUSH0 SWAP1 JUMPDEST DUP3 DUP3 LT ISZERO PUSH2 0xA95 JUMPI DUP4 DUP3 SWAP1 PUSH0 MSTORE PUSH1 0x20 PUSH0 KECCAK256 SWAP1 PUSH1 0x3 MUL ADD PUSH1 0x40 MLOAD DUP1 PUSH1 0x60 ADD PUSH1 0x40 MSTORE SWAP1 DUP2 PUSH0 DUP3 ADD PUSH0 SWAP1 SLOAD SWAP1 PUSH2 0x100 EXP SWAP1 DIV PUSH20 0xFFFFFFFFFFFFFFFFFFFFFFFFFFFFFFFFFFFFFFFF AND PUSH20 0xFFFFFFFFFFFFFFFFFFFFFFFFFFFFFFFFFFFFFFFF AND PUSH20 0xFFFFFFFFFFFFFFFFFFFFFFFFFFFFFFFFFFFFFFFF AND DUP2 MSTORE PUSH1 0x20 ADD PUSH1 0x1 DUP3 ADD DUP1 SLOAD PUSH2 0x9FC SWAP1 PUSH2 0x10A2 JUMP JUMPDEST DUP1 PUSH1 0x1F ADD PUSH1 0x20 DUP1 SWAP2 DIV MUL PUSH1 0x20 ADD PUSH1 0x40 MLOAD SWAP1 DUP2 ADD PUSH1 0x40 MSTORE DUP1 SWAP3 SWAP2 SWAP1 DUP2 DUP2 MSTORE PUSH1 0x20 ADD DUP3 DUP1 SLOAD PUSH2 0xA28 SWAP1 PUSH2 0x10A2 JUMP JUMPDEST DUP1 ISZERO PUSH2 0xA73 JUMPI DUP1 PUSH1 0x1F LT PUSH2 0xA4A JUMPI PUSH2 0x100 DUP1 DUP4 SLOAD DIV MUL DUP4 MSTORE SWAP2 PUSH1 0x20 ADD SWAP2 PUSH2 0xA73 JUMP JUMPDEST DUP3 ADD SWAP2 SWAP1 PUSH0 MSTORE PUSH1 0x20 PUSH0 KECCAK256 SWAP1 JUMPDEST DUP2 SLOAD DUP2 MSTORE SWAP1 PUSH1 0x1 ADD SWAP1 PUSH1 0x20 ADD DUP1 DUP4 GT PUSH2 0xA56 JUMPI DUP3 SWAP1 SUB PUSH1 0x1F AND DUP3 ADD SWAP2 JUMPDEST POP POP POP POP POP DUP2 MSTORE PUSH1 0x20 ADD PUSH1 0x2 DUP3 ADD SLOAD DUP2 MSTORE POP POP DUP2 MSTORE PUSH1 0x20 ADD SWAP1 PUSH1 0x1 ADD SWAP1 PUSH2 0x977 JUMP JUMPDEST POP POP POP POP SWAP1 POP SWAP1 JUMP JUMPDEST POP DUP1 SLOAD PUSH2 0xAAA SWAP1 PUSH2 0x10A2 JUMP JUMPDEST PUSH0 DUP3 SSTORE DUP1 PUSH1 0x1F LT PUSH2 0xABB JUMPI POP PUSH2 0xAD8 JUMP JUMPDEST PUSH1 0x1F ADD PUSH1 0x20 SWAP1 DIV SWAP1 PUSH0 MSTORE PUSH1 0x20 PUSH0 KECCAK256 SWAP1 DUP2 ADD SWAP1 PUSH2 0xAD7 SWAP2 SWAP1 PUSH2 0xADB JUMP JUMPDEST JUMPDEST POP JUMP JUMPDEST JUMPDEST DUP1 DUP3 GT ISZERO PUSH2 0xAF2 JUMPI PUSH0 DUP2 PUSH0 SWAP1 SSTORE POP PUSH1 0x1 ADD PUSH2 0xADC JUMP JUMPDEST POP SWAP1 JUMP JUMPDEST PUSH0 DUP2 SWAP1 POP SWAP2 SWAP1 POP JUMP JUMPDEST PUSH2 0xB08 DUP2 PUSH2 0xAF6 JUMP JUMPDEST DUP3 MSTORE POP POP JUMP JUMPDEST PUSH0 PUSH1 0x20 DUP3 ADD SWAP1 POP PUSH2 0xB21 PUSH0 DUP4 ADD DUP5 PUSH2 0xAFF JUMP JUMPDEST SWAP3 SWAP2 POP POP JUMP JUMPDEST PUSH0 PUSH1 0x40 MLOAD SWAP1 POP SWAP1 JUMP JUMPDEST PUSH0 PUSH0 REVERT JUMPDEST PUSH0 PUSH0 REVERT JUMPDEST PUSH0 PUSH20 0xFFFFFFFFFFFFFFFFFFFFFFFFFFFFFFFFFFFFFFFF DUP3 AND SWAP1 POP SWAP2 SWAP1 POP JUMP JUMPDEST PUSH0 PUSH2 0xB61 DUP3 PUSH2 0xB38 JUMP JUMPDEST SWAP1 POP SWAP2 SWAP1 POP JUMP JUMPDEST PUSH2 0xB71 DUP2 PUSH2 0xB57 JUMP JUMPDEST DUP2 EQ PUSH2 0xB7B JUMPI PUSH0 PUSH0 REVERT JUMPDEST POP JUMP JUMPDEST PUSH0 DUP2 CALLDATALOAD SWAP1 POP PUSH2 0xB8C DUP2 PUSH2 0xB68 JUMP JUMPDEST SWAP3 SWAP2 POP POP JUMP JUMPDEST PUSH0 PUSH1 0x20 DUP3 DUP5 SUB SLT ISZERO PUSH2 0xBA7 JUMPI PUSH2 0xBA6 PUSH2 0xB30 JUMP JUMPDEST JUMPDEST PUSH0 PUSH2 0xBB4 DUP5 DUP3 DUP6 ADD PUSH2 0xB7E JUMP JUMPDEST SWAP2 POP POP SWAP3 SWAP2 POP POP JUMP JUMPDEST PUSH0 PUSH2 0xBC7 DUP3 PUSH2 0xB38 JUMP JUMPDEST SWAP1 POP SWAP2 SWAP1 POP JUMP JUMPDEST PUSH2 0xBD7 DUP2 PUSH2 0xBBD JUMP JUMPDEST DUP2 EQ PUSH2 0xBE1 JUMPI PUSH0 PUSH0 REVERT JUMPDEST POP JUMP JUMPDEST PUSH0 DUP2 CALLDATALOAD SWAP1 POP PUSH2 0xBF2 DUP2 PUSH2 0xBCE JUMP JUMPDEST SWAP3 SWAP2 POP POP JUMP JUMPDEST PUSH0 PUSH0 REVERT JUMPDEST PUSH0 PUSH0 REVERT JUMPDEST PUSH0 PUSH1 0x1F NOT PUSH1 0x1F DUP4 ADD AND SWAP1 POP SWAP2 SWAP1 POP JUMP JUMPDEST PUSH32 0x4E487B7100000000000000000000000000000000000000000000000000000000 PUSH0 MSTORE PUSH1 0x41 PUSH1 0x4 MSTORE PUSH1 0x24 PUSH0 REVERT JUMPDEST PUSH2 0xC46 DUP3 PUSH2 0xC00 JUMP JUMPDEST DUP2 ADD DUP2 DUP2 LT PUSH8 0xFFFFFFFFFFFFFFFF DUP3 GT OR ISZERO PUSH2 0xC65 JUMPI PUSH2 0xC64 PUSH2 0xC10 JUMP JUMPDEST JUMPDEST DUP1 PUSH1 0x40 MSTORE POP POP POP JUMP JUMPDEST PUSH0 PUSH2 0xC77 PUSH2 0xB27 JUMP JUMPDEST SWAP1 POP PUSH2 0xC83 DUP3 DUP3 PUSH2 0xC3D JUMP JUMPDEST SWAP2 SWAP1 POP JUMP JUMPDEST PUSH0 PUSH8 0xFFFFFFFFFFFFFFFF DUP3 GT ISZERO PUSH2 0xCA2 JUMPI PUSH2 0xCA1 PUSH2 0xC10 JUMP JUMPDEST JUMPDEST PUSH2 0xCAB DUP3 PUSH2 0xC00 JUMP JUMPDEST SWAP1 POP PUSH1 0x20 DUP2 ADD SWAP1 POP SWAP2 SWAP1 POP JUMP JUMPDEST DUP3 DUP2 DUP4 CALLDATACOPY PUSH0 DUP4 DUP4 ADD MSTORE POP POP POP JUMP JUMPDEST PUSH0 PUSH2 0xCD8 PUSH2 0xCD3 DUP5 PUSH2 0xC88 JUMP JUMPDEST PUSH2 0xC6E JUMP JUMPDEST SWAP1 POP DUP3 DUP2 MSTORE PUSH1 0x20 DUP2 ADD DUP5 DUP5 DUP5 ADD GT ISZERO PUSH2 0xCF4 JUMPI PUSH2 0xCF3 PUSH2 0xBFC JUMP JUMPDEST JUMPDEST PUSH2 0xCFF DUP5 DUP3 DUP6 PUSH2 0xCB8 JUMP JUMPDEST POP SWAP4 SWAP3 POP POP POP JUMP JUMPDEST PUSH0 DUP3 PUSH1 0x1F DUP4 ADD SLT PUSH2 0xD1B JUMPI PUSH2 0xD1A PUSH2 0xBF8 JUMP JUMPDEST JUMPDEST DUP2 CALLDATALOAD PUSH2 0xD2B DUP5 DUP3 PUSH1 0x20 DUP7 ADD PUSH2 0xCC6 JUMP JUMPDEST SWAP2 POP POP SWAP3 SWAP2 POP POP JUMP JUMPDEST PUSH2 0xD3D DUP2 PUSH2 0xAF6 JUMP JUMPDEST DUP2 EQ PUSH2 0xD47 JUMPI PUSH0 PUSH0 REVERT JUMPDEST POP JUMP JUMPDEST PUSH0 DUP2 CALLDATALOAD SWAP1 POP PUSH2 0xD58 DUP2 PUSH2 0xD34 JUMP JUMPDEST SWAP3 SWAP2 POP POP JUMP JUMPDEST PUSH0 PUSH0 PUSH0 PUSH1 0x60 DUP5 DUP7 SUB SLT ISZERO PUSH2 0xD75 JUMPI PUSH2 0xD74 PUSH2 0xB30 JUMP JUMPDEST JUMPDEST PUSH0 PUSH2 0xD82 DUP7 DUP3 DUP8 ADD PUSH2 0xBE4 JUMP JUMPDEST SWAP4 POP POP PUSH1 0x20 DUP5 ADD CALLDATALOAD PUSH8 0xFFFFFFFFFFFFFFFF DUP2 GT ISZERO PUSH2 0xDA3 JUMPI PUSH2 0xDA2 PUSH2 0xB34 JUMP JUMPDEST JUMPDEST PUSH2 0xDAF DUP7 DUP3 DUP8 ADD PUSH2 0xD07 JUMP JUMPDEST SWAP3 POP POP PUSH1 0x40 PUSH2 0xDC0 DUP7 DUP3 DUP8 ADD PUSH2 0xD4A JUMP JUMPDEST SWAP2 POP POP SWAP3 POP SWAP3 POP SWAP3 JUMP JUMPDEST PUSH0 DUP2 MLOAD SWAP1 POP SWAP2 SWAP1 POP JUMP JUMPDEST PUSH0 DUP3 DUP3 MSTORE PUSH1 0x20 DUP3 ADD SWAP1 POP SWAP3 SWAP2 POP POP JUMP JUMPDEST PUSH0 DUP2 SWAP1 POP PUSH1 0x20 DUP3 ADD SWAP1 POP SWAP2 SWAP1 POP JUMP JUMPDEST PUSH2 0xDFC DUP2 PUSH2 0xBBD JUMP JUMPDEST DUP3 MSTORE POP POP JUMP JUMPDEST PUSH0 DUP2 MLOAD SWAP1 POP SWAP2 SWAP1 POP JUMP JUMPDEST PUSH0 DUP3 DUP3 MSTORE PUSH1 0x20 DUP3 ADD SWAP1 POP SWAP3 SWAP2 POP POP JUMP JUMPDEST DUP3 DUP2 DUP4 MCOPY PUSH0 DUP4 DUP4 ADD MSTORE POP POP POP JUMP JUMPDEST PUSH0 PUSH2 0xE34 DUP3 PUSH2 0xE02 JUMP JUMPDEST PUSH2 0xE3E DUP2 DUP6 PUSH2 0xE0C JUMP JUMPDEST SWAP4 POP PUSH2 0xE4E DUP2 DUP6 PUSH1 0x20 DUP7 ADD PUSH2 0xE1C JUMP JUMPDEST PUSH2 0xE57 DUP2 PUSH2 0xC00 JUMP JUMPDEST DUP5 ADD SWAP2 POP POP SWAP3 SWAP2 POP POP JUMP JUMPDEST PUSH2 0xE6B DUP2 PUSH2 0xAF6 JUMP JUMPDEST DUP3 MSTORE POP POP JUMP JUMPDEST PUSH0 PUSH1 0x60 DUP4 ADD PUSH0 DUP4 ADD MLOAD PUSH2 0xE86 PUSH0 DUP7 ADD DUP3 PUSH2 0xDF3 JUMP JUMPDEST POP PUSH1 0x20 DUP4 ADD MLOAD DUP5 DUP3 SUB PUSH1 0x20 DUP7 ADD MSTORE PUSH2 0xE9E DUP3 DUP3 PUSH2 0xE2A JUMP JUMPDEST SWAP2 POP POP PUSH1 0x40 DUP4 ADD MLOAD PUSH2 0xEB3 PUSH1 0x40 DUP7 ADD DUP3 PUSH2 0xE62 JUMP JUMPDEST POP DUP1 SWAP2 POP POP SWAP3 SWAP2 POP POP JUMP JUMPDEST PUSH0 PUSH2 0xEC9 DUP4 DUP4 PUSH2 0xE71 JUMP JUMPDEST SWAP1 POP SWAP3 SWAP2 POP POP JUMP JUMPDEST PUSH0 PUSH1 0x20 DUP3 ADD SWAP1 POP SWAP2 SWAP1 POP JUMP JUMPDEST PUSH0 PUSH2 0xEE7 DUP3 PUSH2 0xDCA JUMP JUMPDEST PUSH2 0xEF1 DUP2 DUP6 PUSH2 0xDD4 JUMP JUMPDEST SWAP4 POP DUP4 PUSH1 0x20 DUP3 MUL DUP6 ADD PUSH2 0xF03 DUP6 PUSH2 0xDE4 JUMP JUMPDEST DUP1 PUSH0 JUMPDEST DUP6 DUP2 LT ISZERO PUSH2 0xF3E JUMPI DUP5 DUP5 SUB DUP10 MSTORE DUP2 MLOAD PUSH2 0xF1F DUP6 DUP3 PUSH2 0xEBE JUMP JUMPDEST SWAP5 POP PUSH2 0xF2A DUP4 PUSH2 0xED1 JUMP JUMPDEST SWAP3 POP PUSH1 0x20 DUP11 ADD SWAP10 POP POP PUSH1 0x1 DUP2 ADD SWAP1 POP PUSH2 0xF06 JUMP JUMPDEST POP DUP3 SWAP8 POP DUP8 SWAP6 POP POP POP POP POP POP SWAP3 SWAP2 POP POP JUMP JUMPDEST PUSH0 PUSH1 0x20 DUP3 ADD SWAP1 POP DUP2 DUP2 SUB PUSH0 DUP4 ADD MSTORE PUSH2 0xF68 DUP2 DUP5 PUSH2 0xEDD JUMP JUMPDEST SWAP1 POP SWAP3 SWAP2 POP POP JUMP JUMPDEST PUSH0 DUP3 DUP3 MSTORE PUSH1 0x20 DUP3 ADD SWAP1 POP SWAP3 SWAP2 POP POP JUMP JUMPDEST PUSH32 0x4F6E6C79206F776E65722063616E2063616C6C00000000000000000000000000 PUSH0 DUP3 ADD MSTORE POP JUMP JUMPDEST PUSH0 PUSH2 0xFB4 PUSH1 0x13 DUP4 PUSH2 0xF70 JUMP JUMPDEST SWAP2 POP PUSH2 0xFBF DUP3 PUSH2 0xF80 JUMP JUMPDEST PUSH1 0x20 DUP3 ADD SWAP1 POP SWAP2 SWAP1 POP JUMP JUMPDEST PUSH0 PUSH1 0x20 DUP3 ADD SWAP1 POP DUP2 DUP2 SUB PUSH0 DUP4 ADD MSTORE PUSH2 0xFE1 DUP2 PUSH2 0xFA8 JUMP JUMPDEST SWAP1 POP SWAP2 SWAP1 POP JUMP JUMPDEST PUSH32 0x4E487B7100000000000000000000000000000000000000000000000000000000 PUSH0 MSTORE PUSH1 0x32 PUSH1 0x4 MSTORE PUSH1 0x24 PUSH0 REVERT JUMPDEST PUSH32 0x4E487B7100000000000000000000000000000000000000000000000000000000 PUSH0 MSTORE PUSH1 0x11 PUSH1 0x4 MSTORE PUSH1 0x24 PUSH0 REVERT JUMPDEST PUSH0 PUSH2 0x104C DUP3 PUSH2 0xAF6 JUMP JUMPDEST SWAP2 POP PUSH2 0x1057 DUP4 PUSH2 0xAF6 JUMP JUMPDEST SWAP3 POP DUP3 DUP3 SUB SWAP1 POP DUP2 DUP2 GT ISZERO PUSH2 0x106F JUMPI PUSH2 0x106E PUSH2 0x1015 JUMP JUMPDEST JUMPDEST SWAP3 SWAP2 POP POP JUMP JUMPDEST PUSH32 0x4E487B7100000000000000000000000000000000000000000000000000000000 PUSH0 MSTORE PUSH1 0x22 PUSH1 0x4 MSTORE PUSH1 0x24 PUSH0 REVERT JUMPDEST PUSH0 PUSH1 0x2 DUP3 DIV SWAP1 POP PUSH1 0x1 DUP3 AND DUP1 PUSH2 0x10B9 JUMPI PUSH1 0x7F DUP3 AND SWAP2 POP JUMPDEST PUSH1 0x20 DUP3 LT DUP2 SUB PUSH2 0x10CC JUMPI PUSH2 0x10CB PUSH2 0x1075 JUMP JUMPDEST JUMPDEST POP SWAP2 SWAP1 POP JUMP JUMPDEST PUSH0 DUP2 SLOAD SWAP1 POP PUSH2 0x10E0 DUP2 PUSH2 0x10A2 JUMP JUMPDEST SWAP1 POP SWAP2 SWAP1 POP JUMP JUMPDEST PUSH0 DUP2 SWAP1 POP DUP2 PUSH0 MSTORE PUSH1 0x20 PUSH0 KECCAK256 SWAP1 POP SWAP2 SWAP1 POP JUMP JUMPDEST PUSH0 PUSH1 0x20 PUSH1 0x1F DUP4 ADD DIV SWAP1 POP SWAP2 SWAP1 POP JUMP JUMPDEST PUSH0 DUP3 DUP3 SHL SWAP1 POP SWAP3 SWAP2 POP POP JUMP JUMPDEST PUSH0 PUSH1 0x8 DUP4 MUL PUSH2 0x1143 PUSH32 0xFFFFFFFFFFFFFFFFFFFFFFFFFFFFFFFFFFFFFFFFFFFFFFFFFFFFFFFFFFFFFFFF DUP3 PUSH2 0x1108 JUMP JUMPDEST PUSH2 0x114D DUP7 DUP4 PUSH2 0x1108 JUMP JUMPDEST SWAP6 POP DUP1 NOT DUP5 AND SWAP4 POP DUP1 DUP7 AND DUP5 OR SWAP3 POP POP POP SWAP4 SWAP3 POP POP POP JUMP JUMPDEST PUSH0 DUP2 SWAP1 POP SWAP2 SWAP1 POP JUMP JUMPDEST PUSH0 PUSH2 0x1188 PUSH2 0x1183 PUSH2 0x117E DUP5 PUSH2 0xAF6 JUMP JUMPDEST PUSH2 0x1165 JUMP JUMPDEST PUSH2 0xAF6 JUMP JUMPDEST SWAP1 POP SWAP2 SWAP1 POP JUMP JUMPDEST PUSH0 DUP2 SWAP1 POP SWAP2 SWAP1 POP JUMP JUMPDEST PUSH2 0x11A1 DUP4 PUSH2 0x116E JUMP JUMPDEST PUSH2 0x11B5 PUSH2 0x11AD DUP3 PUSH2 0x118F JUMP JUMPDEST DUP5 DUP5 SLOAD PUSH2 0x1114 JUMP JUMPDEST DUP3 SSTORE POP POP POP POP JUMP JUMPDEST PUSH0 PUSH0 SWAP1 POP SWAP1 JUMP JUMPDEST PUSH2 0x11CC PUSH2 0x11BD JUMP JUMPDEST PUSH2 0x11D7 DUP2 DUP5 DUP5 PUSH2 0x1198 JUMP JUMPDEST POP POP POP JUMP JUMPDEST JUMPDEST DUP2 DUP2 LT ISZERO PUSH2 0x11FA JUMPI PUSH2 0x11EF PUSH0 DUP3 PUSH2 0x11C4 JUMP JUMPDEST PUSH1 0x1 DUP2 ADD SWAP1 POP PUSH2 0x11DD JUMP JUMPDEST POP POP JUMP JUMPDEST PUSH1 0x1F DUP3 GT ISZERO PUSH2 0x123F JUMPI PUSH2 0x1210 DUP2 PUSH2 0x10E7 JUMP JUMPDEST PUSH2 0x1219 DUP5 PUSH2 0x10F9 JUMP JUMPDEST DUP2 ADD PUSH1 0x20 DUP6 LT ISZERO PUSH2 0x1228 JUMPI DUP2 SWAP1 POP JUMPDEST PUSH2 0x123C PUSH2 0x1234 DUP6 PUSH2 0x10F9 JUMP JUMPDEST DUP4 ADD DUP3 PUSH2 0x11DC JUMP JUMPDEST POP POP JUMPDEST POP POP POP JUMP JUMPDEST PUSH0 DUP3 DUP3 SHR SWAP1 POP SWAP3 SWAP2 POP POP JUMP JUMPDEST PUSH0 PUSH2 0x125F PUSH0 NOT DUP5 PUSH1 0x8 MUL PUSH2 0x1244 JUMP JUMPDEST NOT DUP1 DUP4 AND SWAP2 POP POP SWAP3 SWAP2 POP POP JUMP JUMPDEST PUSH0 PUSH2 0x1277 DUP4 DUP4 PUSH2 0x1250 JUMP JUMPDEST SWAP2 POP DUP3 PUSH1 0x2 MUL DUP3 OR SWAP1 POP SWAP3 SWAP2 POP POP JUMP JUMPDEST DUP2 DUP2 SUB PUSH2 0x1295 JUMPI POP POP PUSH2 0x136A JUMP JUMPDEST PUSH2 0x129E DUP3 PUSH2 0x10D2 JUMP JUMPDEST PUSH8 0xFFFFFFFFFFFFFFFF DUP2 GT ISZERO PUSH2 0x12B7 JUMPI PUSH2 0x12B6 PUSH2 0xC10 JUMP JUMPDEST JUMPDEST PUSH2 0x12C1 DUP3 SLOAD PUSH2 0x10A2 JUMP JUMPDEST PUSH2 0x12CC DUP3 DUP3 DUP6 PUSH2 0x11FE JUMP JUMPDEST PUSH0 PUSH1 0x1F DUP4 GT PUSH1 0x1 DUP2 EQ PUSH2 0x12F9 JUMPI PUSH0 DUP5 ISZERO PUSH2 0x12E7 JUMPI DUP3 DUP8 ADD SLOAD SWAP1 POP JUMPDEST PUSH2 0x12F1 DUP6 DUP3 PUSH2 0x126C JUMP JUMPDEST DUP7 SSTORE POP PUSH2 0x1363 JUMP JUMPDEST PUSH1 0x1F NOT DUP5 AND PUSH2 0x1307 DUP8 PUSH2 0x10E7 JUMP JUMPDEST SWAP7 POP PUSH2 0x1312 DUP7 PUSH2 0x10E7 JUMP JUMPDEST PUSH0 JUMPDEST DUP3 DUP2 LT ISZERO PUSH2 0x1339 JUMPI DUP5 DUP10 ADD SLOAD DUP3 SSTORE PUSH1 0x1 DUP3 ADD SWAP2 POP PUSH1 0x1 DUP6 ADD SWAP5 POP PUSH1 0x20 DUP2 ADD SWAP1 POP PUSH2 0x1314 JUMP JUMPDEST DUP7 DUP4 LT ISZERO PUSH2 0x1356 JUMPI DUP5 DUP10 ADD SLOAD PUSH2 0x1352 PUSH1 0x1F DUP10 AND DUP3 PUSH2 0x1250 JUMP JUMPDEST DUP4 SSTORE POP JUMPDEST PUSH1 0x1 PUSH1 0x2 DUP9 MUL ADD DUP9 SSTORE POP POP POP JUMPDEST POP POP POP POP POP POP JUMPDEST JUMP JUMPDEST PUSH32 0x4E487B7100000000000000000000000000000000000000000000000000000000 PUSH0 MSTORE PUSH1 0x31 PUSH1 0x4 MSTORE PUSH1 0x24 PUSH0 REVERT JUMPDEST PUSH0 PUSH2 0x13A3 DUP3 PUSH2 0xAF6 JUMP JUMPDEST SWAP2 POP PUSH2 0x13AE DUP4 PUSH2 0xAF6 JUMP JUMPDEST SWAP3 POP DUP3 DUP3 ADD SWAP1 POP DUP1 DUP3 GT ISZERO PUSH2 0x13C6 JUMPI PUSH2 0x13C5 PUSH2 0x1015 JUMP JUMPDEST JUMPDEST SWAP3 SWAP2 POP POP JUMP JUMPDEST PUSH32 0x506C6561736520707574206D6F6E657920696E2056414C5545206669656C6400 PUSH0 DUP3 ADD MSTORE POP JUMP JUMPDEST PUSH0 PUSH2 0x1400 PUSH1 0x1F DUP4 PUSH2 0xF70 JUMP JUMPDEST SWAP2 POP PUSH2 0x140B DUP3 PUSH2 0x13CC JUMP JUMPDEST PUSH1 0x20 DUP3 ADD SWAP1 POP SWAP2 SWAP1 POP JUMP JUMPDEST PUSH0 PUSH1 0x20 DUP3 ADD SWAP1 POP DUP2 DUP2 SUB PUSH0 DUP4 ADD MSTORE PUSH2 0x142D DUP2 PUSH2 0x13F4 JUMP JUMPDEST SWAP1 POP SWAP2 SWAP1 POP JUMP JUMPDEST PUSH32 0x4E6F20776169747265737320696E206C69737400000000000000000000000000 PUSH0 DUP3 ADD MSTORE POP JUMP JUMPDEST PUSH0 PUSH2 0x1468 PUSH1 0x13 DUP4 PUSH2 0xF70 JUMP JUMPDEST SWAP2 POP PUSH2 0x1473 DUP3 PUSH2 0x1434 JUMP JUMPDEST PUSH1 0x20 DUP3 ADD SWAP1 POP SWAP2 SWAP1 POP JUMP JUMPDEST PUSH0 PUSH1 0x20 DUP3 ADD SWAP1 POP DUP2 DUP2 SUB PUSH0 DUP4 ADD MSTORE PUSH2 0x1495 DUP2 PUSH2 0x145C JUMP JUMPDEST SWAP1 POP SWAP2 SWAP1 POP JUMP JUMPDEST PUSH32 0x5365747570206572726F723A20546F74616C2070657263656E7420696E206C69 PUSH0 DUP3 ADD MSTORE PUSH32 0x7374206578636565647320313030250000000000000000000000000000000000 PUSH1 0x20 DUP3 ADD MSTORE POP JUMP JUMPDEST PUSH0 PUSH2 0x14F6 PUSH1 0x2F DUP4 PUSH2 0xF70 JUMP JUMPDEST SWAP2 POP PUSH2 0x1501 DUP3 PUSH2 0x149C JUMP JUMPDEST PUSH1 0x40 DUP3 ADD SWAP1 POP SWAP2 SWAP1 POP JUMP JUMPDEST PUSH0 PUSH1 0x20 DUP3 ADD SWAP1 POP DUP2 DUP2 SUB PUSH0 DUP4 ADD MSTORE PUSH2 0x1523 DUP2 PUSH2 0x14EA JUMP JUMPDEST SWAP1 POP SWAP2 SWAP1 POP JUMP JUMPDEST PUSH0 PUSH2 0x1534 DUP3 PUSH2 0xAF6 JUMP JUMPDEST SWAP2 POP PUSH2 0x153F DUP4 PUSH2 0xAF6 JUMP JUMPDEST SWAP3 POP DUP3 DUP3 MUL PUSH2 0x154D DUP2 PUSH2 0xAF6 JUMP JUMPDEST SWAP2 POP DUP3 DUP3 DIV DUP5 EQ DUP4 ISZERO OR PUSH2 0x1564 JUMPI PUSH2 0x1563 PUSH2 0x1015 JUMP JUMPDEST JUMPDEST POP SWAP3 SWAP2 POP POP JUMP JUMPDEST PUSH32 0x4E487B7100000000000000000000000000000000000000000000000000000000 PUSH0 MSTORE PUSH1 0x12 PUSH1 0x4 MSTORE PUSH1 0x24 PUSH0 REVERT JUMPDEST PUSH0 PUSH2 0x15A2 DUP3 PUSH2 0xAF6 JUMP JUMPDEST SWAP2 POP PUSH2 0x15AD DUP4 PUSH2 0xAF6 JUMP JUMPDEST SWAP3 POP DUP3 PUSH2 0x15BD JUMPI PUSH2 0x15BC PUSH2 0x156B JUMP JUMPDEST JUMPDEST DUP3 DUP3 DIV SWAP1 POP SWAP3 SWAP2 POP POP JUMP JUMPDEST PUSH0 DUP2 SWAP1 POP SWAP3 SWAP2 POP POP JUMP JUMPDEST POP JUMP JUMPDEST PUSH0 PUSH2 0x15E0 PUSH0 DUP4 PUSH2 0x15C8 JUMP JUMPDEST SWAP2 POP PUSH2 0x15EB DUP3 PUSH2 0x15D2 JUMP JUMPDEST PUSH0 DUP3 ADD SWAP1 POP SWAP2 SWAP1 POP JUMP JUMPDEST PUSH0 PUSH2 0x15FF DUP3 PUSH2 0x15D5 JUMP JUMPDEST SWAP2 POP DUP2 SWAP1 POP SWAP2 SWAP1 POP JUMP JUMPDEST PUSH32 0x5472616E73666572206661696C65640000000000000000000000000000000000 PUSH0 DUP3 ADD MSTORE POP JUMP JUMPDEST PUSH0 PUSH2 0x163D PUSH1 0xF DUP4 PUSH2 0xF70 JUMP JUMPDEST SWAP2 POP PUSH2 0x1648 DUP3 PUSH2 0x1609 JUMP JUMPDEST PUSH1 0x20 DUP3 ADD SWAP1 POP SWAP2 SWAP1 POP JUMP JUMPDEST PUSH0 PUSH1 0x20 DUP3 ADD SWAP1 POP DUP2 DUP2 SUB PUSH0 DUP4 ADD MSTORE PUSH2 0x166A DUP2 PUSH2 0x1631 JUMP JUMPDEST SWAP1 POP SWAP2 SWAP1 POP JUMP JUMPDEST PUSH32 0x576169747265737320616C726561647920657869737473000000000000000000 PUSH0 DUP3 ADD MSTORE POP JUMP JUMPDEST PUSH0 PUSH2 0x16A5 PUSH1 0x17 DUP4 PUSH2 0xF70 JUMP JUMPDEST SWAP2 POP PUSH2 0x16B0 DUP3 PUSH2 0x1671 JUMP JUMPDEST PUSH1 0x20 DUP3 ADD SWAP1 POP SWAP2 SWAP1 POP JUMP JUMPDEST PUSH0 PUSH1 0x20 DUP3 ADD SWAP1 POP DUP2 DUP2 SUB PUSH0 DUP4 ADD MSTORE PUSH2 0x16D2 DUP2 PUSH2 0x1699 JUMP JUMPDEST SWAP1 POP SWAP2 SWAP1 POP JUMP JUMPDEST PUSH32 0x546F74616C2070657263656E7420657863656564732031303025000000000000 PUSH0 DUP3 ADD MSTORE POP JUMP JUMPDEST PUSH0 PUSH2 0x170D PUSH1 0x1A DUP4 PUSH2 0xF70 JUMP JUMPDEST SWAP2 POP PUSH2 0x1718 DUP3 PUSH2 0x16D9 JUMP JUMPDEST PUSH1 0x20 DUP3 ADD SWAP1 POP SWAP2 SWAP1 POP JUMP JUMPDEST PUSH0 PUSH1 0x20 DUP3 ADD SWAP1 POP DUP2 DUP2 SUB PUSH0 DUP4 ADD MSTORE PUSH2 0x173A DUP2 PUSH2 0x1701 JUMP JUMPDEST SWAP1 POP SWAP2 SWAP1 POP JUMP JUMPDEST PUSH2 0x174A DUP3 PUSH2 0xE02 JUMP JUMPDEST PUSH8 0xFFFFFFFFFFFFFFFF DUP2 GT ISZERO PUSH2 0x1763 JUMPI PUSH2 0x1762 PUSH2 0xC10 JUMP JUMPDEST JUMPDEST PUSH2 0x176D DUP3 SLOAD PUSH2 0x10A2 JUMP JUMPDEST PUSH2 0x1778 DUP3 DUP3 DUP6 PUSH2 0x11FE JUMP JUMPDEST PUSH0 PUSH1 0x20 SWAP1 POP PUSH1 0x1F DUP4 GT PUSH1 0x1 DUP2 EQ PUSH2 0x17A9 JUMPI PUSH0 DUP5 ISZERO PUSH2 0x1797 JUMPI DUP3 DUP8 ADD MLOAD SWAP1 POP JUMPDEST PUSH2 0x17A1 DUP6 DUP3 PUSH2 0x126C JUMP JUMPDEST DUP7 SSTORE POP PUSH2 0x1808 JUMP JUMPDEST PUSH1 0x1F NOT DUP5 AND PUSH2 0x17B7 DUP7 PUSH2 0x10E7 JUMP JUMPDEST PUSH0 JUMPDEST DUP3 DUP2 LT ISZERO PUSH2 0x17DE JUMPI DUP5 DUP10 ADD MLOAD DUP3 SSTORE PUSH1 0x1 DUP3 ADD SWAP2 POP PUSH1 0x20 DUP6 ADD SWAP5 POP PUSH1 0x20 DUP2 ADD SWAP1 POP PUSH2 0x17B9 JUMP JUMPDEST DUP7 DUP4 LT ISZERO PUSH2 0x17FB JUMPI DUP5 DUP10 ADD MLOAD PUSH2 0x17F7 PUSH1 0x1F DUP10 AND DUP3 PUSH2 0x1250 JUMP JUMPDEST DUP4 SSTORE POP JUMPDEST PUSH1 0x1 PUSH1 0x2 DUP9 MUL ADD DUP9 SSTORE POP POP POP JUMPDEST POP POP POP POP POP POP JUMP INVALID LOG2 PUSH5 0x6970667358 0x22 SLT KECCAK256 SELFBALANCE LOG2 DUP11 0x1F BASEFEE LOG0 PUSH12 0x15E0AF65716C6D036FADD131 XOR CREATE2 OR PREVRANDAO GAS MULMOD REVERT KECCAK256 LT 0xCA 0xAD DUP1 0xA9 PUSH5 0x736F6C6343 STOP ADDMOD 0x1F STOP CALLER "
		},
		"gasEstimates": {
			"creation": {
				"codeDepositCost": "1242800",
				"executionCost": "25557",
				"totalCost": "1268357"
			},
			"external": {
				"addWaitress(address,string,uint256)": "infinite",
				"addtips()": "119",
				"distributeBalance()": "infinite",
				"getTotalPercent()": "infinite",
				"removeWaitress(address)": "infinite",
				"viewWaitress()": "infinite",
				"viewtips()": "335"
			}
		},
		"methodIdentifiers": {
			"addWaitress(address,string,uint256)": "b499b79a",
			"addtips()": "6e7301fd",
			"distributeBalance()": "7943da69",
			"getTotalPercent()": "3c8e3b52",
			"removeWaitress(address)": "369a489d",
			"viewWaitress()": "e83a1b00",
			"viewtips()": "2a08deda"
		}
	},
	"abi": [
		{
			"inputs": [],
			"stateMutability": "nonpayable",
			"type": "constructor"
		},
		{
			"inputs": [
				{
					"internalType": "address payable",
					"name": "_walletAddress",
					"type": "address"
				},
				{
					"internalType": "string",
					"name": "_name",
					"type": "string"
				},
				{
					"internalType": "uint256",
					"name": "_percent",
					"type": "uint256"
				}
			],
			"name": "addWaitress",
			"outputs": [],
			"stateMutability": "nonpayable",
			"type": "function"
		},
		{
			"inputs": [],
			"name": "addtips",
			"outputs": [],
			"stateMutability": "payable",
			"type": "function"
		},
		{
			"inputs": [],
			"name": "distributeBalance",
			"outputs": [],
			"stateMutability": "payable",
			"type": "function"
		},
		{
			"inputs": [],
			"name": "getTotalPercent",
			"outputs": [
				{
					"internalType": "uint256",
					"name": "",
					"type": "uint256"
				}
			],
			"stateMutability": "view",
			"type": "function"
		},
		{
			"inputs": [
				{
					"internalType": "address",
					"name": "_walletAddress",
					"type": "address"
				}
			],
			"name": "removeWaitress",
			"outputs": [],
			"stateMutability": "nonpayable",
			"type": "function"
		},
		{
			"inputs": [],
			"name": "viewWaitress",
			"outputs": [
				{
					"components": [
						{
							"internalType": "address payable",
							"name": "walletAddress",
							"type": "address"
						},
						{
							"internalType": "string",
							"name": "name",
							"type": "string"
						},
						{
							"internalType": "uint256",
							"name": "percent",
							"type": "uint256"
						}
					],
					"internalType": "struct tips.Waitress[]",
					"name": "",
					"type": "tuple[]"
				}
			],
			"stateMutability": "view",
			"type": "function"
		},
		{
			"inputs": [],
			"name": "viewtips",
			"outputs": [
				{
					"internalType": "uint256",
					"name": "",
					"type": "uint256"
				}
			],
			"stateMutability": "view",
			"type": "function"
		}
	]
}